{
  "_format": "hh-sol-artifact-1",
  "contractName": "StudentSocietyDAO",
  "sourceName": "contracts/StudentSocietyDAO.sol",
  "abi": [
    {
      "inputs": [],
      "stateMutability": "nonpayable",
      "type": "constructor"
    },
    {
      "anonymous": false,
      "inputs": [
        {
          "indexed": false,
          "internalType": "uint32",
          "name": "proposalIndex",
          "type": "uint32"
        }
      ],
      "name": "ProposalInitiated",
      "type": "event"
    },
    {
      "inputs": [
        {
          "internalType": "uint32",
          "name": "index",
          "type": "uint32"
        }
      ],
      "name": "conclude",
      "outputs": [],
      "stateMutability": "nonpayable",
      "type": "function"
    },
    {
      "inputs": [],
      "name": "getCostPerVote",
      "outputs": [
        {
          "internalType": "uint32",
          "name": "",
          "type": "uint32"
        }
      ],
      "stateMutability": "pure",
      "type": "function"
    },
    {
      "inputs": [
        {
          "internalType": "uint32",
          "name": "index",
          "type": "uint32"
        }
      ],
      "name": "getDuration",
      "outputs": [
        {
          "internalType": "uint256",
          "name": "",
          "type": "uint256"
        }
      ],
      "stateMutability": "view",
      "type": "function"
    },
    {
      "inputs": [],
      "name": "getManager",
      "outputs": [
        {
          "internalType": "address",
          "name": "",
          "type": "address"
        }
      ],
      "stateMutability": "view",
      "type": "function"
    },
    {
      "inputs": [
        {
          "internalType": "uint32",
          "name": "index",
          "type": "uint32"
        }
      ],
      "name": "getName",
      "outputs": [
        {
          "internalType": "string",
          "name": "",
          "type": "string"
        }
      ],
      "stateMutability": "view",
      "type": "function"
    },
    {
      "inputs": [
        {
          "internalType": "uint32",
          "name": "index",
          "type": "uint32"
        }
      ],
      "name": "getNo",
      "outputs": [
        {
          "internalType": "uint32",
          "name": "",
          "type": "uint32"
        }
      ],
      "stateMutability": "view",
      "type": "function"
    },
    {
      "inputs": [],
      "name": "getProposalInitCost",
      "outputs": [
        {
          "internalType": "uint32",
          "name": "",
          "type": "uint32"
        }
      ],
      "stateMutability": "pure",
      "type": "function"
    },
    {
      "inputs": [],
      "name": "getProposalNum",
      "outputs": [
        {
          "internalType": "uint256",
          "name": "",
          "type": "uint256"
        }
      ],
      "stateMutability": "view",
      "type": "function"
    },
    {
      "inputs": [
        {
          "internalType": "uint32",
          "name": "index",
          "type": "uint32"
        }
      ],
      "name": "getStartTime",
      "outputs": [
        {
          "internalType": "uint256",
          "name": "",
          "type": "uint256"
        }
      ],
      "stateMutability": "view",
      "type": "function"
    },
    {
      "inputs": [
        {
          "internalType": "uint32",
          "name": "index",
          "type": "uint32"
        }
      ],
      "name": "getYes",
      "outputs": [
        {
          "internalType": "uint32",
          "name": "",
          "type": "uint32"
        }
      ],
      "stateMutability": "view",
      "type": "function"
    },
    {
      "inputs": [
        {
          "internalType": "uint32",
          "name": "index",
          "type": "uint32"
        }
      ],
      "name": "isExpired",
      "outputs": [
        {
          "internalType": "bool",
          "name": "",
          "type": "bool"
        }
      ],
      "stateMutability": "view",
      "type": "function"
    },
    {
      "inputs": [],
      "name": "manager",
      "outputs": [
        {
          "internalType": "address",
          "name": "",
          "type": "address"
        }
      ],
      "stateMutability": "view",
      "type": "function"
    },
    {
      "inputs": [
        {
          "internalType": "uint32",
          "name": "amount",
          "type": "uint32"
        },
        {
          "internalType": "string",
          "name": "name",
          "type": "string"
        },
        {
          "internalType": "uint256",
          "name": "duration",
          "type": "uint256"
        }
      ],
      "name": "newProposal",
      "outputs": [
        {
          "internalType": "uint32",
          "name": "proposalIndex",
          "type": "uint32"
        }
      ],
      "stateMutability": "nonpayable",
      "type": "function"
    },
    {
      "inputs": [
        {
          "internalType": "address",
          "name": "",
          "type": "address"
        }
      ],
      "name": "passNum",
      "outputs": [
        {
          "internalType": "uint32",
          "name": "",
          "type": "uint32"
        }
      ],
      "stateMutability": "view",
      "type": "function"
    },
    {
      "inputs": [],
      "name": "proposalNum",
      "outputs": [
        {
          "internalType": "uint32",
          "name": "",
          "type": "uint32"
        }
      ],
      "stateMutability": "view",
      "type": "function"
    },
    {
      "inputs": [
        {
          "internalType": "uint32",
          "name": "",
          "type": "uint32"
        }
      ],
      "name": "proposals",
      "outputs": [
        {
          "internalType": "uint32",
          "name": "index",
          "type": "uint32"
        },
        {
          "internalType": "address",
          "name": "proposer",
          "type": "address"
        },
        {
          "internalType": "uint256",
          "name": "startTime",
          "type": "uint256"
        },
        {
          "internalType": "uint256",
          "name": "duration",
          "type": "uint256"
        },
        {
          "internalType": "string",
          "name": "name",
          "type": "string"
        },
        {
          "internalType": "uint32",
          "name": "yes",
          "type": "uint32"
        },
        {
          "internalType": "uint32",
          "name": "no",
          "type": "uint32"
        },
        {
          "internalType": "bool",
          "name": "concluded",
          "type": "bool"
        }
      ],
      "stateMutability": "view",
      "type": "function"
    },
    {
      "inputs": [],
      "name": "rand",
      "outputs": [
        {
          "internalType": "uint256",
          "name": "",
          "type": "uint256"
        }
      ],
      "stateMutability": "view",
      "type": "function"
    },
    {
      "inputs": [],
      "name": "studentERC20",
      "outputs": [
        {
          "internalType": "contract SocietyCredit",
          "name": "",
          "type": "address"
        }
      ],
      "stateMutability": "view",
      "type": "function"
    },
    {
      "inputs": [],
      "name": "studentNFT",
      "outputs": [
        {
          "internalType": "contract StudentNFT",
          "name": "",
          "type": "address"
        }
      ],
      "stateMutability": "view",
      "type": "function"
    },
    {
      "inputs": [
        {
          "internalType": "uint32",
          "name": "index",
          "type": "uint32"
        },
        {
          "internalType": "bool",
          "name": "support",
          "type": "bool"
        },
        {
          "internalType": "uint32",
          "name": "amount",
          "type": "uint32"
        }
      ],
      "name": "vote",
      "outputs": [],
      "stateMutability": "nonpayable",
      "type": "function"
    }
  ],
  "bytecode": "0x60806040523480156200001157600080fd5b50604051620000209062000168565b6200002b9062000235565b604051809103906000f08015801562000048573d6000803e3d6000fd5b50600060046101000a81548173ffffffffffffffffffffffffffffffffffffffff021916908373ffffffffffffffffffffffffffffffffffffffff160217905550604051620000979062000176565b620000a2906200030c565b604051809103906000f080158015620000bf573d6000803e3d6000fd5b50600160006101000a81548173ffffffffffffffffffffffffffffffffffffffff021916908373ffffffffffffffffffffffffffffffffffffffff16021790555060008060006101000a81548163ffffffff021916908363ffffffff16021790555033600260006101000a81548173ffffffffffffffffffffffffffffffffffffffff021916908373ffffffffffffffffffffffffffffffffffffffff16021790555062000343565b61199080620028d983390190565b612959806200426983390190565b600082825260208201905092915050565b7f73747564656e7445524332300000000000000000000000000000000000000000600082015250565b6000620001cd600c8362000184565b9150620001da8262000195565b602082019050919050565b7f5354550000000000000000000000000000000000000000000000000000000000600082015250565b60006200021d60038362000184565b91506200022a82620001e5565b602082019050919050565b600060408201905081810360008301526200025081620001be565b9050818103602083015262000265816200020e565b9050919050565b7f73747564656e744e465400000000000000000000000000000000000000000000600082015250565b6000620002a4600a8362000184565b9150620002b1826200026c565b602082019050919050565b7f5354460000000000000000000000000000000000000000000000000000000000600082015250565b6000620002f460038362000184565b91506200030182620002bc565b602082019050919050565b60006040820190508181036000830152620003278162000295565b905081810360208301526200033c81620002e5565b9050919050565b61258680620003536000396000f3fe608060405234801561001057600080fd5b506004361061012c5760003560e01c80635ff7d44e116100ad578063a427653311610071578063a427653314610374578063be20a20a14610392578063ce9e3001146103b0578063d5009584146103e0578063e5600481146103fe5761012c565b80635ff7d44e146102ce5780636c3fbb2d146102ec578063763b7c5b1461030a578063987720b5146103265780639f2f1942146103565761012c565b80633cb22381116100f45780633cb2238114610216578063481c6a7514610234578063550891da14610252578063587999f21461026e57806359f00ddf1461029e5761012c565b806308653de114610131578063238dd991146101615780632a4910ab14610191578063356f9999146101c85780633b3dca76146101f8575b600080fd5b61014b60048036038101906101469190611936565b61042e565b6040516101589190611972565b60405180910390f35b61017b60048036038101906101769190611b09565b61046a565b6040516101889190611972565b60405180910390f35b6101ab60048036038101906101a69190611936565b610856565b6040516101bf989796959493929190611c6b565b60405180910390f35b6101e260048036038101906101dd9190611936565b610983565b6040516101ef9190611cf0565b60405180910390f35b6102006109af565b60405161020d9190611cf0565b60405180910390f35b61021e610aa7565b60405161022b9190611972565b60405180910390f35b61023c610ab0565b6040516102499190611d0b565b60405180910390f35b61026c60048036038101906102679190611d52565b610ad6565b005b61028860048036038101906102839190611936565b610d77565b6040516102959190611da5565b60405180910390f35b6102b860048036038101906102b39190611936565b610dd3565b6040516102c59190611cf0565b60405180910390f35b6102d6610dff565b6040516102e39190611972565b60405180910390f35b6102f4610e09565b6040516103019190611e1f565b60405180910390f35b610324600480360381019061031f9190611936565b610e2f565b005b610340600480360381019061033b9190611936565b6116ad565b60405161034d9190611972565b60405180910390f35b61035e6116e9565b60405161036b9190611972565b60405180910390f35b61037c6116fd565b6040516103899190611cf0565b60405180910390f35b61039a61171c565b6040516103a79190611e5b565b60405180910390f35b6103ca60048036038101906103c59190611ea2565b611742565b6040516103d79190611972565b60405180910390f35b6103e8611765565b6040516103f59190611d0b565b60405180910390f35b61041860048036038101906104139190611936565b61178f565b6040516104259190611ecf565b60405180910390f35b6000600360008363ffffffff1663ffffffff16815260200190815260200160002060040160049054906101000a900463ffffffff169050919050565b600061012c63ffffffff168463ffffffff1610156104bd576040517f08c379a00000000000000000000000000000000000000000000000000000000081526004016104b490611f63565b60405180910390fd5b600060049054906101000a900473ffffffffffffffffffffffffffffffffffffffff1673ffffffffffffffffffffffffffffffffffffffff166323b872dd3330876040518463ffffffff1660e01b815260040161051c93929190611fb4565b602060405180830381600087803b15801561053657600080fd5b505af115801561054a573d6000803e3d6000fd5b505050506040513d601f19601f8201168201806040525081019061056e9190612000565b50600160008054906101000a900463ffffffff1661058c919061205c565b6000806101000a81548163ffffffff021916908363ffffffff16021790555060008054906101000a900463ffffffff16600360008060009054906101000a900463ffffffff1663ffffffff1663ffffffff16815260200190815260200160002060000160006101000a81548163ffffffff021916908363ffffffff16021790555033600360008060009054906101000a900463ffffffff1663ffffffff1663ffffffff16815260200190815260200160002060000160046101000a81548173ffffffffffffffffffffffffffffffffffffffff021916908373ffffffffffffffffffffffffffffffffffffffff160217905550606461012c8561068f9190612096565b61069991906120f9565b600360008060009054906101000a900463ffffffff1663ffffffff1663ffffffff16815260200190815260200160002060040160006101000a81548163ffffffff021916908363ffffffff1602179055506000600360008060009054906101000a900463ffffffff1663ffffffff1663ffffffff16815260200190815260200160002060040160046101000a81548163ffffffff021916908363ffffffff16021790555042600360008060009054906101000a900463ffffffff1663ffffffff1663ffffffff1681526020019081526020016000206001018190555081600360008060009054906101000a900463ffffffff1663ffffffff1663ffffffff1681526020019081526020016000206002018190555082600360008060009054906101000a900463ffffffff1663ffffffff1663ffffffff16815260200190815260200160002060030190805190602001906107f4929190611843565b507f944f5ef0a446d54c41ea39dac07de1fd2150ec3346cbff6c627d1ffba048676c60008054906101000a900463ffffffff166040516108349190611972565b60405180910390a160008054906101000a900463ffffffff1690509392505050565b60036020528060005260406000206000915090508060000160009054906101000a900463ffffffff16908060000160049054906101000a900473ffffffffffffffffffffffffffffffffffffffff16908060010154908060020154908060030180546108c190612159565b80601f01602080910402602001604051908101604052809291908181526020018280546108ed90612159565b801561093a5780601f1061090f5761010080835404028352916020019161093a565b820191906000526020600020905b81548152906001019060200180831161091d57829003601f168201915b5050505050908060040160009054906101000a900463ffffffff16908060040160049054906101000a900463ffffffff16908060040160089054906101000a900460ff16905088565b6000600360008363ffffffff1663ffffffff168152602001908152602001600020600101549050919050565b6000804342336040516020016109c591906121d3565b6040516020818303038152906040528051906020012060001c6109e891906121ee565b4542416040516020016109fb919061225a565b6040516020818303038152906040528051906020012060001c610a1e91906121ee565b4442610a2a9190612275565b610a349190612275565b610a3e9190612275565b610a489190612275565b610a529190612275565b604051602001610a6291906122ec565b6040516020818303038152906040528051906020012060001c90506103e88082610a8c91906121ee565b610a969190612307565b81610aa19190612361565b91505090565b60006064905090565b600260009054906101000a900473ffffffffffffffffffffffffffffffffffffffff1681565b606463ffffffff168163ffffffff161015610b26576040517f08c379a0000000000000000000000000000000000000000000000000000000008152600401610b1d906123e1565b60405180910390fd5b60008054906101000a900463ffffffff1663ffffffff168363ffffffff161180610b9e575042600360008563ffffffff1663ffffffff16815260200190815260200160002060020154600360008663ffffffff1663ffffffff16815260200190815260200160002060010154610b9c9190612275565b105b15610bde576040517f08c379a0000000000000000000000000000000000000000000000000000000008152600401610bd590612473565b60405180910390fd5b600060049054906101000a900473ffffffffffffffffffffffffffffffffffffffff1673ffffffffffffffffffffffffffffffffffffffff166323b872dd3330846040518463ffffffff1660e01b8152600401610c3d93929190611fb4565b602060405180830381600087803b158015610c5757600080fd5b505af1158015610c6b573d6000803e3d6000fd5b505050506040513d601f19601f82011682018060405250810190610c8f9190612000565b508115610d0657606481610ca391906120f9565b600360008563ffffffff1663ffffffff16815260200190815260200160002060040160008282829054906101000a900463ffffffff16610ce3919061205c565b92506101000a81548163ffffffff021916908363ffffffff160217905550610d72565b606481610d1391906120f9565b600360008563ffffffff1663ffffffff16815260200190815260200160002060040160048282829054906101000a900463ffffffff16610d53919061205c565b92506101000a81548163ffffffff021916908363ffffffff1602179055505b505050565b6000600360008363ffffffff1663ffffffff16815260200190815260200160002060020154600360008463ffffffff1663ffffffff16815260200190815260200160002060010154610dc99190612275565b4210159050919050565b6000600360008363ffffffff1663ffffffff168152602001908152602001600020600201549050919050565b600061012c905090565b600060049054906101000a900473ffffffffffffffffffffffffffffffffffffffff1681565b600260009054906101000a900473ffffffffffffffffffffffffffffffffffffffff1673ffffffffffffffffffffffffffffffffffffffff163373ffffffffffffffffffffffffffffffffffffffff1614610e8957600080fd5b600360008263ffffffff1663ffffffff16815260200190815260200160002060020154600360008363ffffffff1663ffffffff16815260200190815260200160002060010154610ed99190612275565b4210158015610f155750600360008263ffffffff1663ffffffff16815260200190815260200160002060040160089054906101000a900460ff16155b610f1e57600080fd5b6001600360008363ffffffff1663ffffffff16815260200190815260200160002060040160086101000a81548160ff021916908315150217905550600360008263ffffffff1663ffffffff16815260200190815260200160002060040160049054906101000a900463ffffffff1663ffffffff16600360008363ffffffff1663ffffffff16815260200190815260200160002060040160009054906101000a900463ffffffff1663ffffffff16111561156f57600060049054906101000a900473ffffffffffffffffffffffffffffffffffffffff1673ffffffffffffffffffffffffffffffffffffffff1663a9059cbb600360008463ffffffff1663ffffffff16815260200190815260200160002060000160049054906101000a900473ffffffffffffffffffffffffffffffffffffffff1660026064600360008763ffffffff1663ffffffff16815260200190815260200160002060040160049054906101000a900463ffffffff16600360008863ffffffff1663ffffffff16815260200190815260200160002060040160009054906101000a900463ffffffff166110c6919061205c565b6110d09190612493565b6110da91906120f9565b6040518363ffffffff1660e01b81526004016110f79291906124d1565b602060405180830381600087803b15801561111157600080fd5b505af1158015611125573d6000803e3d6000fd5b505050506040513d601f19601f820116820180604052508101906111499190612000565b50600060049054906101000a900473ffffffffffffffffffffffffffffffffffffffff1673ffffffffffffffffffffffffffffffffffffffff1663a9059cbb61dead61012c60026064600360008863ffffffff1663ffffffff16815260200190815260200160002060040160049054906101000a900463ffffffff16600360008963ffffffff1663ffffffff16815260200190815260200160002060040160009054906101000a900463ffffffff16611202919061205c565b61120c9190612493565b61121691906120f9565b611220919061205c565b6040518363ffffffff1660e01b815260040161123d9291906124d1565b602060405180830381600087803b15801561125757600080fd5b505af115801561126b573d6000803e3d6000fd5b505050506040513d601f19601f8201168201806040525081019061128f9190612000565b5060046000600360008463ffffffff1663ffffffff16815260200190815260200160002060000160049054906101000a900473ffffffffffffffffffffffffffffffffffffffff1673ffffffffffffffffffffffffffffffffffffffff1673ffffffffffffffffffffffffffffffffffffffff168152602001908152602001600020600081819054906101000a900463ffffffff1680929190611331906124fa565b91906101000a81548163ffffffff021916908363ffffffff16021790555050600360046000600360008563ffffffff1663ffffffff16815260200190815260200160002060000160049054906101000a900473ffffffffffffffffffffffffffffffffffffffff1673ffffffffffffffffffffffffffffffffffffffff1673ffffffffffffffffffffffffffffffffffffffff16815260200190815260200160002060009054906101000a900463ffffffff1663ffffffff16141561156a57600060046000600360008563ffffffff1663ffffffff16815260200190815260200160002060000160049054906101000a900473ffffffffffffffffffffffffffffffffffffffff1673ffffffffffffffffffffffffffffffffffffffff1673ffffffffffffffffffffffffffffffffffffffff16815260200190815260200160002060006101000a81548163ffffffff021916908363ffffffff160217905550600160009054906101000a900473ffffffffffffffffffffffffffffffffffffffff1673ffffffffffffffffffffffffffffffffffffffff166340c10f19600360008463ffffffff1663ffffffff16815260200190815260200160002060000160049054906101000a900473ffffffffffffffffffffffffffffffffffffffff1661151a6109af565b6040518363ffffffff1660e01b8152600401611537929190612527565b600060405180830381600087803b15801561155157600080fd5b505af1158015611565573d6000803e3d6000fd5b505050505b6116aa565b600060049054906101000a900473ffffffffffffffffffffffffffffffffffffffff1673ffffffffffffffffffffffffffffffffffffffff1663a9059cbb61dead61012c6064600360008763ffffffff1663ffffffff16815260200190815260200160002060040160049054906101000a900463ffffffff16600360008863ffffffff1663ffffffff16815260200190815260200160002060040160009054906101000a900463ffffffff16611625919061205c565b61162f9190612493565b611639919061205c565b6040518363ffffffff1660e01b81526004016116569291906124d1565b602060405180830381600087803b15801561167057600080fd5b505af1158015611684573d6000803e3d6000fd5b505050506040513d601f19601f820116820180604052508101906116a89190612000565b505b50565b6000600360008363ffffffff1663ffffffff16815260200190815260200160002060040160009054906101000a900463ffffffff169050919050565b60008054906101000a900463ffffffff1681565b60008060009054906101000a900463ffffffff1663ffffffff16905090565b600160009054906101000a900473ffffffffffffffffffffffffffffffffffffffff1681565b60046020528060005260406000206000915054906101000a900463ffffffff1681565b6000600260009054906101000a900473ffffffffffffffffffffffffffffffffffffffff16905090565b6060600360008363ffffffff1663ffffffff16815260200190815260200160002060030180546117be90612159565b80601f01602080910402602001604051908101604052809291908181526020018280546117ea90612159565b80156118375780601f1061180c57610100808354040283529160200191611837565b820191906000526020600020905b81548152906001019060200180831161181a57829003601f168201915b50505050509050919050565b82805461184f90612159565b90600052602060002090601f01602090048101928261187157600085556118b8565b82601f1061188a57805160ff19168380011785556118b8565b828001600101855582156118b8579182015b828111156118b757825182559160200191906001019061189c565b5b5090506118c591906118c9565b5090565b5b808211156118e25760008160009055506001016118ca565b5090565b6000604051905090565b600080fd5b600080fd5b600063ffffffff82169050919050565b611913816118fa565b811461191e57600080fd5b50565b6000813590506119308161190a565b92915050565b60006020828403121561194c5761194b6118f0565b5b600061195a84828501611921565b91505092915050565b61196c816118fa565b82525050565b60006020820190506119876000830184611963565b92915050565b600080fd5b600080fd5b6000601f19601f8301169050919050565b7f4e487b7100000000000000000000000000000000000000000000000000000000600052604160045260246000fd5b6119e082611997565b810181811067ffffffffffffffff821117156119ff576119fe6119a8565b5b80604052505050565b6000611a126118e6565b9050611a1e82826119d7565b919050565b600067ffffffffffffffff821115611a3e57611a3d6119a8565b5b611a4782611997565b9050602081019050919050565b82818337600083830152505050565b6000611a76611a7184611a23565b611a08565b905082815260208101848484011115611a9257611a91611992565b5b611a9d848285611a54565b509392505050565b600082601f830112611aba57611ab961198d565b5b8135611aca848260208601611a63565b91505092915050565b6000819050919050565b611ae681611ad3565b8114611af157600080fd5b50565b600081359050611b0381611add565b92915050565b600080600060608486031215611b2257611b216118f0565b5b6000611b3086828701611921565b935050602084013567ffffffffffffffff811115611b5157611b506118f5565b5b611b5d86828701611aa5565b9250506040611b6e86828701611af4565b9150509250925092565b600073ffffffffffffffffffffffffffffffffffffffff82169050919050565b6000611ba382611b78565b9050919050565b611bb381611b98565b82525050565b611bc281611ad3565b82525050565b600081519050919050565b600082825260208201905092915050565b60005b83811015611c02578082015181840152602081019050611be7565b83811115611c11576000848401525b50505050565b6000611c2282611bc8565b611c2c8185611bd3565b9350611c3c818560208601611be4565b611c4581611997565b840191505092915050565b60008115159050919050565b611c6581611c50565b82525050565b600061010082019050611c81600083018b611963565b611c8e602083018a611baa565b611c9b6040830189611bb9565b611ca86060830188611bb9565b8181036080830152611cba8187611c17565b9050611cc960a0830186611963565b611cd660c0830185611963565b611ce360e0830184611c5c565b9998505050505050505050565b6000602082019050611d056000830184611bb9565b92915050565b6000602082019050611d206000830184611baa565b92915050565b611d2f81611c50565b8114611d3a57600080fd5b50565b600081359050611d4c81611d26565b92915050565b600080600060608486031215611d6b57611d6a6118f0565b5b6000611d7986828701611921565b9350506020611d8a86828701611d3d565b9250506040611d9b86828701611921565b9150509250925092565b6000602082019050611dba6000830184611c5c565b92915050565b6000819050919050565b6000611de5611de0611ddb84611b78565b611dc0565b611b78565b9050919050565b6000611df782611dca565b9050919050565b6000611e0982611dec565b9050919050565b611e1981611dfe565b82525050565b6000602082019050611e346000830184611e10565b92915050565b6000611e4582611dec565b9050919050565b611e5581611e3a565b82525050565b6000602082019050611e706000830184611e4c565b92915050565b611e7f81611b98565b8114611e8a57600080fd5b50565b600081359050611e9c81611e76565b92915050565b600060208284031215611eb857611eb76118f0565b5b6000611ec684828501611e8d565b91505092915050565b60006020820190508181036000830152611ee98184611c17565b905092915050565b7f696e7375666669656e7420746f6b656e20746f206d616b6520612070726f706f60008201527f73616c0000000000000000000000000000000000000000000000000000000000602082015250565b6000611f4d602383611bd3565b9150611f5882611ef1565b604082019050919050565b60006020820190508181036000830152611f7c81611f40565b9050919050565b6000611f9e611f99611f94846118fa565b611dc0565b611ad3565b9050919050565b611fae81611f83565b82525050565b6000606082019050611fc96000830186611baa565b611fd66020830185611baa565b611fe36040830184611fa5565b949350505050565b600081519050611ffa81611d26565b92915050565b600060208284031215612016576120156118f0565b5b600061202484828501611feb565b91505092915050565b7f4e487b7100000000000000000000000000000000000000000000000000000000600052601160045260246000fd5b6000612067826118fa565b9150612072836118fa565b92508263ffffffff0382111561208b5761208a61202d565b5b828201905092915050565b60006120a1826118fa565b91506120ac836118fa565b9250828210156120bf576120be61202d565b5b828203905092915050565b7f4e487b7100000000000000000000000000000000000000000000000000000000600052601260045260246000fd5b6000612104826118fa565b915061210f836118fa565b92508261211f5761211e6120ca565b5b828204905092915050565b7f4e487b7100000000000000000000000000000000000000000000000000000000600052602260045260246000fd5b6000600282049050600182168061217157607f821691505b602082108114156121855761218461212a565b5b50919050565b60008160601b9050919050565b60006121a38261218b565b9050919050565b60006121b582612198565b9050919050565b6121cd6121c882611b98565b6121aa565b82525050565b60006121df82846121bc565b60148201915081905092915050565b60006121f982611ad3565b915061220483611ad3565b925082612214576122136120ca565b5b828204905092915050565b600061222a82611b78565b9050919050565b600061223c82612198565b9050919050565b61225461224f8261221f565b612231565b82525050565b60006122668284612243565b60148201915081905092915050565b600061228082611ad3565b915061228b83611ad3565b9250827fffffffffffffffffffffffffffffffffffffffffffffffffffffffffffffffff038211156122c0576122bf61202d565b5b828201905092915050565b6000819050919050565b6122e66122e182611ad3565b6122cb565b82525050565b60006122f882846122d5565b60208201915081905092915050565b600061231282611ad3565b915061231d83611ad3565b9250817fffffffffffffffffffffffffffffffffffffffffffffffffffffffffffffffff04831182151516156123565761235561202d565b5b828202905092915050565b600061236c82611ad3565b915061237783611ad3565b92508282101561238a5761238961202d565b5b828203905092915050565b7f696e7375666669656e7420746f6b656e20746f20766f74650000000000000000600082015250565b60006123cb601883611bd3565b91506123d682612395565b602082019050919050565b600060208201905081810360008301526123fa816123be565b9050919050565b7f7468652070726f706f73616c206973206e6f7420666f756e64206f722065787060008201527f6972656400000000000000000000000000000000000000000000000000000000602082015250565b600061245d602483611bd3565b915061246882612401565b604082019050919050565b6000602082019050818103600083015261248c81612450565b9050919050565b600061249e826118fa565b91506124a9836118fa565b92508163ffffffff04831182151516156124c6576124c561202d565b5b828202905092915050565b60006040820190506124e66000830185611baa565b6124f36020830184611fa5565b9392505050565b6000612505826118fa565b915063ffffffff82141561251c5761251b61202d565b5b600182019050919050565b600060408201905061253c6000830185611baa565b6125496020830184611bb9565b939250505056fea2646970667358221220ffbf9c7fadeb2199db44e7239a31b5c87a47ee259fbbef24f7a746c4fdb6223964736f6c6343000809003360806040523480156200001157600080fd5b5060405162001990380380620019908339818101604052810190620000379190620002c2565b818181600390805190602001906200005192919062000075565b5080600490805190602001906200006a92919062000075565b5050505050620003ac565b828054620000839062000376565b90600052602060002090601f016020900481019282620000a75760008555620000f3565b82601f10620000c257805160ff1916838001178555620000f3565b82800160010185558215620000f3579182015b82811115620000f2578251825591602001919060010190620000d5565b5b50905062000102919062000106565b5090565b5b808211156200012157600081600090555060010162000107565b5090565b6000604051905090565b600080fd5b600080fd5b600080fd5b600080fd5b6000601f19601f8301169050919050565b7f4e487b7100000000000000000000000000000000000000000000000000000000600052604160045260246000fd5b6200018e8262000143565b810181811067ffffffffffffffff82111715620001b057620001af62000154565b5b80604052505050565b6000620001c562000125565b9050620001d3828262000183565b919050565b600067ffffffffffffffff821115620001f657620001f562000154565b5b620002018262000143565b9050602081019050919050565b60005b838110156200022e57808201518184015260208101905062000211565b838111156200023e576000848401525b50505050565b60006200025b6200025584620001d8565b620001b9565b9050828152602081018484840111156200027a57620002796200013e565b5b620002878482856200020e565b509392505050565b600082601f830112620002a757620002a662000139565b5b8151620002b984826020860162000244565b91505092915050565b60008060408385031215620002dc57620002db6200012f565b5b600083015167ffffffffffffffff811115620002fd57620002fc62000134565b5b6200030b858286016200028f565b925050602083015167ffffffffffffffff8111156200032f576200032e62000134565b5b6200033d858286016200028f565b9150509250929050565b7f4e487b7100000000000000000000000000000000000000000000000000000000600052602260045260246000fd5b600060028204905060018216806200038f57607f821691505b60208210811415620003a657620003a562000347565b5b50919050565b6115d480620003bc6000396000f3fe608060405234801561001057600080fd5b50600436106100b45760003560e01c80633950935111610071578063395093511461017d57806370a08231146101ad57806395d89b41146101dd578063a457c2d7146101fb578063a9059cbb1461022b578063dd62ed3e1461025b576100b4565b806306fdde03146100b9578063095ea7b3146100d757806318160ddd1461010757806323b872dd14610125578063313ce567146101555780633884d63514610173575b600080fd5b6100c161028b565b6040516100ce9190610d90565b60405180910390f35b6100f160048036038101906100ec9190610e4b565b61031d565b6040516100fe9190610ea6565b60405180910390f35b61010f610340565b60405161011c9190610ed0565b60405180910390f35b61013f600480360381019061013a9190610eeb565b61034a565b60405161014c9190610ea6565b60405180910390f35b61015d610379565b60405161016a9190610f5a565b60405180910390f35b61017b610382565b005b61019760048036038101906101929190610e4b565b61047b565b6040516101a49190610ea6565b60405180910390f35b6101c760048036038101906101c29190610f75565b6104b2565b6040516101d49190610ed0565b60405180910390f35b6101e56104fa565b6040516101f29190610d90565b60405180910390f35b61021560048036038101906102109190610e4b565b61058c565b6040516102229190610ea6565b60405180910390f35b61024560048036038101906102409190610e4b565b610603565b6040516102529190610ea6565b60405180910390f35b61027560048036038101906102709190610fa2565b610626565b6040516102829190610ed0565b60405180910390f35b60606003805461029a90611011565b80601f01602080910402602001604051908101604052809291908181526020018280546102c690611011565b80156103135780601f106102e857610100808354040283529160200191610313565b820191906000526020600020905b8154815290600101906020018083116102f657829003601f168201915b5050505050905090565b6000806103286106ad565b90506103358185856106b5565b600191505092915050565b6000600254905090565b6000806103556106ad565b9050610362858285610880565b61036d85858561090c565b60019150509392505050565b60006012905090565b60001515600560003373ffffffffffffffffffffffffffffffffffffffff1673ffffffffffffffffffffffffffffffffffffffff16815260200190815260200160002060009054906101000a900460ff16151514610415576040517f08c379a000000000000000000000000000000000000000000000000000000000815260040161040c906110b5565b60405180910390fd5b61042133612710610b8d565b6001600560003373ffffffffffffffffffffffffffffffffffffffff1673ffffffffffffffffffffffffffffffffffffffff16815260200190815260200160002060006101000a81548160ff021916908315150217905550565b6000806104866106ad565b90506104a78185856104988589610626565b6104a29190611104565b6106b5565b600191505092915050565b60008060008373ffffffffffffffffffffffffffffffffffffffff1673ffffffffffffffffffffffffffffffffffffffff168152602001908152602001600020549050919050565b60606004805461050990611011565b80601f016020809104026020016040519081016040528092919081815260200182805461053590611011565b80156105825780601f1061055757610100808354040283529160200191610582565b820191906000526020600020905b81548152906001019060200180831161056557829003601f168201915b5050505050905090565b6000806105976106ad565b905060006105a58286610626565b9050838110156105ea576040517f08c379a00000000000000000000000000000000000000000000000000000000081526004016105e1906111cc565b60405180910390fd5b6105f782868684036106b5565b60019250505092915050565b60008061060e6106ad565b905061061b81858561090c565b600191505092915050565b6000600160008473ffffffffffffffffffffffffffffffffffffffff1673ffffffffffffffffffffffffffffffffffffffff16815260200190815260200160002060008373ffffffffffffffffffffffffffffffffffffffff1673ffffffffffffffffffffffffffffffffffffffff16815260200190815260200160002054905092915050565b600033905090565b600073ffffffffffffffffffffffffffffffffffffffff168373ffffffffffffffffffffffffffffffffffffffff161415610725576040517f08c379a000000000000000000000000000000000000000000000000000000000815260040161071c9061125e565b60405180910390fd5b600073ffffffffffffffffffffffffffffffffffffffff168273ffffffffffffffffffffffffffffffffffffffff161415610795576040517f08c379a000000000000000000000000000000000000000000000000000000000815260040161078c906112f0565b60405180910390fd5b80600160008573ffffffffffffffffffffffffffffffffffffffff1673ffffffffffffffffffffffffffffffffffffffff16815260200190815260200160002060008473ffffffffffffffffffffffffffffffffffffffff1673ffffffffffffffffffffffffffffffffffffffff168152602001908152602001600020819055508173ffffffffffffffffffffffffffffffffffffffff168373ffffffffffffffffffffffffffffffffffffffff167f8c5be1e5ebec7d5bd14f71427d1e84f3dd0314c0f7b2291e5b200ac8c7c3b925836040516108739190610ed0565b60405180910390a3505050565b600061088c8484610626565b90507fffffffffffffffffffffffffffffffffffffffffffffffffffffffffffffffff811461090657818110156108f8576040517f08c379a00000000000000000000000000000000000000000000000000000000081526004016108ef9061135c565b60405180910390fd5b61090584848484036106b5565b5b50505050565b600073ffffffffffffffffffffffffffffffffffffffff168373ffffffffffffffffffffffffffffffffffffffff16141561097c576040517f08c379a0000000000000000000000000000000000000000000000000000000008152600401610973906113ee565b60405180910390fd5b600073ffffffffffffffffffffffffffffffffffffffff168273ffffffffffffffffffffffffffffffffffffffff1614156109ec576040517f08c379a00000000000000000000000000000000000000000000000000000000081526004016109e390611480565b60405180910390fd5b6109f7838383610ced565b60008060008573ffffffffffffffffffffffffffffffffffffffff1673ffffffffffffffffffffffffffffffffffffffff16815260200190815260200160002054905081811015610a7d576040517f08c379a0000000000000000000000000000000000000000000000000000000008152600401610a7490611512565b60405180910390fd5b8181036000808673ffffffffffffffffffffffffffffffffffffffff1673ffffffffffffffffffffffffffffffffffffffff16815260200190815260200160002081905550816000808573ffffffffffffffffffffffffffffffffffffffff1673ffffffffffffffffffffffffffffffffffffffff1681526020019081526020016000206000828254610b109190611104565b925050819055508273ffffffffffffffffffffffffffffffffffffffff168473ffffffffffffffffffffffffffffffffffffffff167fddf252ad1be2c89b69c2b068fc378daa952ba7f163c4a11628f55a4df523b3ef84604051610b749190610ed0565b60405180910390a3610b87848484610cf2565b50505050565b600073ffffffffffffffffffffffffffffffffffffffff168273ffffffffffffffffffffffffffffffffffffffff161415610bfd576040517f08c379a0000000000000000000000000000000000000000000000000000000008152600401610bf49061157e565b60405180910390fd5b610c0960008383610ced565b8060026000828254610c1b9190611104565b92505081905550806000808473ffffffffffffffffffffffffffffffffffffffff1673ffffffffffffffffffffffffffffffffffffffff1681526020019081526020016000206000828254610c709190611104565b925050819055508173ffffffffffffffffffffffffffffffffffffffff16600073ffffffffffffffffffffffffffffffffffffffff167fddf252ad1be2c89b69c2b068fc378daa952ba7f163c4a11628f55a4df523b3ef83604051610cd59190610ed0565b60405180910390a3610ce960008383610cf2565b5050565b505050565b505050565b600081519050919050565b600082825260208201905092915050565b60005b83811015610d31578082015181840152602081019050610d16565b83811115610d40576000848401525b50505050565b6000601f19601f8301169050919050565b6000610d6282610cf7565b610d6c8185610d02565b9350610d7c818560208601610d13565b610d8581610d46565b840191505092915050565b60006020820190508181036000830152610daa8184610d57565b905092915050565b600080fd5b600073ffffffffffffffffffffffffffffffffffffffff82169050919050565b6000610de282610db7565b9050919050565b610df281610dd7565b8114610dfd57600080fd5b50565b600081359050610e0f81610de9565b92915050565b6000819050919050565b610e2881610e15565b8114610e3357600080fd5b50565b600081359050610e4581610e1f565b92915050565b60008060408385031215610e6257610e61610db2565b5b6000610e7085828601610e00565b9250506020610e8185828601610e36565b9150509250929050565b60008115159050919050565b610ea081610e8b565b82525050565b6000602082019050610ebb6000830184610e97565b92915050565b610eca81610e15565b82525050565b6000602082019050610ee56000830184610ec1565b92915050565b600080600060608486031215610f0457610f03610db2565b5b6000610f1286828701610e00565b9350506020610f2386828701610e00565b9250506040610f3486828701610e36565b9150509250925092565b600060ff82169050919050565b610f5481610f3e565b82525050565b6000602082019050610f6f6000830184610f4b565b92915050565b600060208284031215610f8b57610f8a610db2565b5b6000610f9984828501610e00565b91505092915050565b60008060408385031215610fb957610fb8610db2565b5b6000610fc785828601610e00565b9250506020610fd885828601610e00565b9150509250929050565b7f4e487b7100000000000000000000000000000000000000000000000000000000600052602260045260246000fd5b6000600282049050600182168061102957607f821691505b6020821081141561103d5761103c610fe2565b5b50919050565b7f5468697320757365722068617320636c61696d65642061697264726f7020616c60008201527f7265616479000000000000000000000000000000000000000000000000000000602082015250565b600061109f602583610d02565b91506110aa82611043565b604082019050919050565b600060208201905081810360008301526110ce81611092565b9050919050565b7f4e487b7100000000000000000000000000000000000000000000000000000000600052601160045260246000fd5b600061110f82610e15565b915061111a83610e15565b9250827fffffffffffffffffffffffffffffffffffffffffffffffffffffffffffffffff0382111561114f5761114e6110d5565b5b828201905092915050565b7f45524332303a2064656372656173656420616c6c6f77616e63652062656c6f7760008201527f207a65726f000000000000000000000000000000000000000000000000000000602082015250565b60006111b6602583610d02565b91506111c18261115a565b604082019050919050565b600060208201905081810360008301526111e5816111a9565b9050919050565b7f45524332303a20617070726f76652066726f6d20746865207a65726f2061646460008201527f7265737300000000000000000000000000000000000000000000000000000000602082015250565b6000611248602483610d02565b9150611253826111ec565b604082019050919050565b600060208201905081810360008301526112778161123b565b9050919050565b7f45524332303a20617070726f766520746f20746865207a65726f20616464726560008201527f7373000000000000000000000000000000000000000000000000000000000000602082015250565b60006112da602283610d02565b91506112e58261127e565b604082019050919050565b60006020820190508181036000830152611309816112cd565b9050919050565b7f45524332303a20696e73756666696369656e7420616c6c6f77616e6365000000600082015250565b6000611346601d83610d02565b915061135182611310565b602082019050919050565b6000602082019050818103600083015261137581611339565b9050919050565b7f45524332303a207472616e736665722066726f6d20746865207a65726f20616460008201527f6472657373000000000000000000000000000000000000000000000000000000602082015250565b60006113d8602583610d02565b91506113e38261137c565b604082019050919050565b60006020820190508181036000830152611407816113cb565b9050919050565b7f45524332303a207472616e7366657220746f20746865207a65726f206164647260008201527f6573730000000000000000000000000000000000000000000000000000000000602082015250565b600061146a602383610d02565b91506114758261140e565b604082019050919050565b600060208201905081810360008301526114998161145d565b9050919050565b7f45524332303a207472616e7366657220616d6f756e742065786365656473206260008201527f616c616e63650000000000000000000000000000000000000000000000000000602082015250565b60006114fc602683610d02565b9150611507826114a0565b604082019050919050565b6000602082019050818103600083015261152b816114ef565b9050919050565b7f45524332303a206d696e7420746f20746865207a65726f206164647265737300600082015250565b6000611568601f83610d02565b915061157382611532565b602082019050919050565b600060208201905081810360008301526115978161155b565b905091905056fea2646970667358221220f09044eee2a922e27095d79e39e131b0f28cd7bd09194d409cb51eb364496b8d64736f6c6343000809003360806040523480156200001157600080fd5b506040516200295938038062002959833981810160405281019062000037919062000303565b8181816000908051906020019062000051929190620000b6565b5080600190805190602001906200006a929190620000b6565b50505033600660006101000a81548173ffffffffffffffffffffffffffffffffffffffff021916908373ffffffffffffffffffffffffffffffffffffffff1602179055505050620003ed565b828054620000c490620003b7565b90600052602060002090601f016020900481019282620000e8576000855562000134565b82601f106200010357805160ff191683800117855562000134565b8280016001018555821562000134579182015b828111156200013357825182559160200191906001019062000116565b5b50905062000143919062000147565b5090565b5b808211156200016257600081600090555060010162000148565b5090565b6000604051905090565b600080fd5b600080fd5b600080fd5b600080fd5b6000601f19601f8301169050919050565b7f4e487b7100000000000000000000000000000000000000000000000000000000600052604160045260246000fd5b620001cf8262000184565b810181811067ffffffffffffffff82111715620001f157620001f062000195565b5b80604052505050565b60006200020662000166565b9050620002148282620001c4565b919050565b600067ffffffffffffffff82111562000237576200023662000195565b5b620002428262000184565b9050602081019050919050565b60005b838110156200026f57808201518184015260208101905062000252565b838111156200027f576000848401525b50505050565b60006200029c620002968462000219565b620001fa565b905082815260208101848484011115620002bb57620002ba6200017f565b5b620002c88482856200024f565b509392505050565b600082601f830112620002e857620002e76200017a565b5b8151620002fa84826020860162000285565b91505092915050565b600080604083850312156200031d576200031c62000170565b5b600083015167ffffffffffffffff8111156200033e576200033d62000175565b5b6200034c85828601620002d0565b925050602083015167ffffffffffffffff81111562000370576200036f62000175565b5b6200037e85828601620002d0565b9150509250929050565b7f4e487b7100000000000000000000000000000000000000000000000000000000600052602260045260246000fd5b60006002820490506001821680620003d057607f821691505b60208210811415620003e757620003e662000388565b5b50919050565b61255c80620003fd6000396000f3fe608060405234801561001057600080fd5b50600436106100f55760003560e01c8063481c6a7511610097578063a22cb46511610066578063a22cb46514610284578063b88d4fde146102a0578063c87b56dd146102bc578063e985e9c5146102ec576100f5565b8063481c6a75146101e85780636352211e1461020657806370a082311461023657806395d89b4114610266576100f5565b8063095ea7b3116100d3578063095ea7b31461017857806323b872dd1461019457806340c10f19146101b057806342842e0e146101cc576100f5565b806301ffc9a7146100fa57806306fdde031461012a578063081812fc14610148575b600080fd5b610114600480360381019061010f91906116bb565b61031c565b6040516101219190611703565b60405180910390f35b6101326103fe565b60405161013f91906117b7565b60405180910390f35b610162600480360381019061015d919061180f565b610490565b60405161016f919061187d565b60405180910390f35b610192600480360381019061018d91906118c4565b6104d6565b005b6101ae60048036038101906101a99190611904565b6105ee565b005b6101ca60048036038101906101c591906118c4565b61064e565b005b6101e660048036038101906101e19190611904565b6106b6565b005b6101f06106d6565b6040516101fd919061187d565b60405180910390f35b610220600480360381019061021b919061180f565b6106fc565b60405161022d919061187d565b60405180910390f35b610250600480360381019061024b9190611957565b6107ae565b60405161025d9190611993565b60405180910390f35b61026e610866565b60405161027b91906117b7565b60405180910390f35b61029e600480360381019061029991906119da565b6108f8565b005b6102ba60048036038101906102b59190611b4f565b61090e565b005b6102d660048036038101906102d1919061180f565b610970565b6040516102e391906117b7565b60405180910390f35b61030660048036038101906103019190611bd2565b6109d8565b6040516103139190611703565b60405180910390f35b60007f80ac58cd000000000000000000000000000000000000000000000000000000007bffffffffffffffffffffffffffffffffffffffffffffffffffffffff1916827bffffffffffffffffffffffffffffffffffffffffffffffffffffffff191614806103e757507f5b5e139f000000000000000000000000000000000000000000000000000000007bffffffffffffffffffffffffffffffffffffffffffffffffffffffff1916827bffffffffffffffffffffffffffffffffffffffffffffffffffffffff1916145b806103f757506103f682610a6c565b5b9050919050565b60606000805461040d90611c41565b80601f016020809104026020016040519081016040528092919081815260200182805461043990611c41565b80156104865780601f1061045b57610100808354040283529160200191610486565b820191906000526020600020905b81548152906001019060200180831161046957829003601f168201915b5050505050905090565b600061049b82610ad6565b6004600083815260200190815260200160002060009054906101000a900473ffffffffffffffffffffffffffffffffffffffff169050919050565b60006104e1826106fc565b90508073ffffffffffffffffffffffffffffffffffffffff168373ffffffffffffffffffffffffffffffffffffffff161415610552576040517f08c379a000000000000000000000000000000000000000000000000000000000815260040161054990611ce5565b60405180910390fd5b8073ffffffffffffffffffffffffffffffffffffffff16610571610b21565b73ffffffffffffffffffffffffffffffffffffffff1614806105a0575061059f8161059a610b21565b6109d8565b5b6105df576040517f08c379a00000000000000000000000000000000000000000000000000000000081526004016105d690611d77565b60405180910390fd5b6105e98383610b29565b505050565b6105ff6105f9610b21565b82610be2565b61063e576040517f08c379a000000000000000000000000000000000000000000000000000000000815260040161063590611e09565b60405180910390fd5b610649838383610c77565b505050565b600660009054906101000a900473ffffffffffffffffffffffffffffffffffffffff1673ffffffffffffffffffffffffffffffffffffffff163373ffffffffffffffffffffffffffffffffffffffff16146106a857600080fd5b6106b28282610ede565b5050565b6106d18383836040518060200160405280600081525061090e565b505050565b600660009054906101000a900473ffffffffffffffffffffffffffffffffffffffff1681565b6000806002600084815260200190815260200160002060009054906101000a900473ffffffffffffffffffffffffffffffffffffffff169050600073ffffffffffffffffffffffffffffffffffffffff168173ffffffffffffffffffffffffffffffffffffffff1614156107a5576040517f08c379a000000000000000000000000000000000000000000000000000000000815260040161079c90611e75565b60405180910390fd5b80915050919050565b60008073ffffffffffffffffffffffffffffffffffffffff168273ffffffffffffffffffffffffffffffffffffffff16141561081f576040517f08c379a000000000000000000000000000000000000000000000000000000000815260040161081690611f07565b60405180910390fd5b600360008373ffffffffffffffffffffffffffffffffffffffff1673ffffffffffffffffffffffffffffffffffffffff168152602001908152602001600020549050919050565b60606001805461087590611c41565b80601f01602080910402602001604051908101604052809291908181526020018280546108a190611c41565b80156108ee5780601f106108c3576101008083540402835291602001916108ee565b820191906000526020600020905b8154815290600101906020018083116108d157829003601f168201915b5050505050905090565b61090a610903610b21565b83836110b8565b5050565b61091f610919610b21565b83610be2565b61095e576040517f08c379a000000000000000000000000000000000000000000000000000000000815260040161095590611e09565b60405180910390fd5b61096a84848484611225565b50505050565b606061097b82610ad6565b6000610985611281565b905060008151116109a557604051806020016040528060008152506109d0565b806109af846112be565b6040516020016109c0929190611f63565b6040516020818303038152906040525b915050919050565b6000600560008473ffffffffffffffffffffffffffffffffffffffff1673ffffffffffffffffffffffffffffffffffffffff16815260200190815260200160002060008373ffffffffffffffffffffffffffffffffffffffff1673ffffffffffffffffffffffffffffffffffffffff16815260200190815260200160002060009054906101000a900460ff16905092915050565b60007f01ffc9a7000000000000000000000000000000000000000000000000000000007bffffffffffffffffffffffffffffffffffffffffffffffffffffffff1916827bffffffffffffffffffffffffffffffffffffffffffffffffffffffff1916149050919050565b610adf8161141f565b610b1e576040517f08c379a0000000000000000000000000000000000000000000000000000000008152600401610b1590611e75565b60405180910390fd5b50565b600033905090565b816004600083815260200190815260200160002060006101000a81548173ffffffffffffffffffffffffffffffffffffffff021916908373ffffffffffffffffffffffffffffffffffffffff160217905550808273ffffffffffffffffffffffffffffffffffffffff16610b9c836106fc565b73ffffffffffffffffffffffffffffffffffffffff167f8c5be1e5ebec7d5bd14f71427d1e84f3dd0314c0f7b2291e5b200ac8c7c3b92560405160405180910390a45050565b600080610bee836106fc565b90508073ffffffffffffffffffffffffffffffffffffffff168473ffffffffffffffffffffffffffffffffffffffff161480610c305750610c2f81856109d8565b5b80610c6e57508373ffffffffffffffffffffffffffffffffffffffff16610c5684610490565b73ffffffffffffffffffffffffffffffffffffffff16145b91505092915050565b8273ffffffffffffffffffffffffffffffffffffffff16610c97826106fc565b73ffffffffffffffffffffffffffffffffffffffff1614610ced576040517f08c379a0000000000000000000000000000000000000000000000000000000008152600401610ce490611ff9565b60405180910390fd5b600073ffffffffffffffffffffffffffffffffffffffff168273ffffffffffffffffffffffffffffffffffffffff161415610d5d576040517f08c379a0000000000000000000000000000000000000000000000000000000008152600401610d549061208b565b60405180910390fd5b610d6883838361148b565b610d73600082610b29565b6001600360008573ffffffffffffffffffffffffffffffffffffffff1673ffffffffffffffffffffffffffffffffffffffff1681526020019081526020016000206000828254610dc391906120da565b925050819055506001600360008473ffffffffffffffffffffffffffffffffffffffff1673ffffffffffffffffffffffffffffffffffffffff1681526020019081526020016000206000828254610e1a919061210e565b92505081905550816002600083815260200190815260200160002060006101000a81548173ffffffffffffffffffffffffffffffffffffffff021916908373ffffffffffffffffffffffffffffffffffffffff160217905550808273ffffffffffffffffffffffffffffffffffffffff168473ffffffffffffffffffffffffffffffffffffffff167fddf252ad1be2c89b69c2b068fc378daa952ba7f163c4a11628f55a4df523b3ef60405160405180910390a4610ed9838383611490565b505050565b600073ffffffffffffffffffffffffffffffffffffffff168273ffffffffffffffffffffffffffffffffffffffff161415610f4e576040517f08c379a0000000000000000000000000000000000000000000000000000000008152600401610f45906121b0565b60405180910390fd5b610f578161141f565b15610f97576040517f08c379a0000000000000000000000000000000000000000000000000000000008152600401610f8e9061221c565b60405180910390fd5b610fa36000838361148b565b6001600360008473ffffffffffffffffffffffffffffffffffffffff1673ffffffffffffffffffffffffffffffffffffffff1681526020019081526020016000206000828254610ff3919061210e565b92505081905550816002600083815260200190815260200160002060006101000a81548173ffffffffffffffffffffffffffffffffffffffff021916908373ffffffffffffffffffffffffffffffffffffffff160217905550808273ffffffffffffffffffffffffffffffffffffffff16600073ffffffffffffffffffffffffffffffffffffffff167fddf252ad1be2c89b69c2b068fc378daa952ba7f163c4a11628f55a4df523b3ef60405160405180910390a46110b460008383611490565b5050565b8173ffffffffffffffffffffffffffffffffffffffff168373ffffffffffffffffffffffffffffffffffffffff161415611127576040517f08c379a000000000000000000000000000000000000000000000000000000000815260040161111e90612288565b60405180910390fd5b80600560008573ffffffffffffffffffffffffffffffffffffffff1673ffffffffffffffffffffffffffffffffffffffff16815260200190815260200160002060008473ffffffffffffffffffffffffffffffffffffffff1673ffffffffffffffffffffffffffffffffffffffff16815260200190815260200160002060006101000a81548160ff0219169083151502179055508173ffffffffffffffffffffffffffffffffffffffff168373ffffffffffffffffffffffffffffffffffffffff167f17307eab39ab6107e8899845ad3d59bd9653f200f220920489ca2b5937696c31836040516112189190611703565b60405180910390a3505050565b611230848484610c77565b61123c84848484611495565b61127b576040517f08c379a00000000000000000000000000000000000000000000000000000000081526004016112729061231a565b60405180910390fd5b50505050565b60606040518060400160405280601681526020017f687474703a2f2f3132372e302e302e313a333030302f00000000000000000000815250905090565b60606000821415611306576040518060400160405280600181526020017f3000000000000000000000000000000000000000000000000000000000000000815250905061141a565b600082905060005b600082146113385780806113219061233a565b915050600a8261133191906123b2565b915061130e565b60008167ffffffffffffffff81111561135457611353611a24565b5b6040519080825280601f01601f1916602001820160405280156113865781602001600182028036833780820191505090505b5090505b600085146114135760018261139f91906120da565b9150600a856113ae91906123e3565b60306113ba919061210e565b60f81b8183815181106113d0576113cf612414565b5b60200101907effffffffffffffffffffffffffffffffffffffffffffffffffffffffffffff1916908160001a905350600a8561140c91906123b2565b945061138a565b8093505050505b919050565b60008073ffffffffffffffffffffffffffffffffffffffff166002600084815260200190815260200160002060009054906101000a900473ffffffffffffffffffffffffffffffffffffffff1673ffffffffffffffffffffffffffffffffffffffff1614159050919050565b505050565b505050565b60006114b68473ffffffffffffffffffffffffffffffffffffffff1661162c565b1561161f578373ffffffffffffffffffffffffffffffffffffffff1663150b7a026114df610b21565b8786866040518563ffffffff1660e01b81526004016115019493929190612498565b602060405180830381600087803b15801561151b57600080fd5b505af192505050801561154c57506040513d601f19601f8201168201806040525081019061154991906124f9565b60015b6115cf573d806000811461157c576040519150601f19603f3d011682016040523d82523d6000602084013e611581565b606091505b506000815114156115c7576040517f08c379a00000000000000000000000000000000000000000000000000000000081526004016115be9061231a565b60405180910390fd5b805181602001fd5b63150b7a0260e01b7bffffffffffffffffffffffffffffffffffffffffffffffffffffffff1916817bffffffffffffffffffffffffffffffffffffffffffffffffffffffff191614915050611624565b600190505b949350505050565b6000808273ffffffffffffffffffffffffffffffffffffffff163b119050919050565b6000604051905090565b600080fd5b600080fd5b60007fffffffff0000000000000000000000000000000000000000000000000000000082169050919050565b61169881611663565b81146116a357600080fd5b50565b6000813590506116b58161168f565b92915050565b6000602082840312156116d1576116d0611659565b5b60006116df848285016116a6565b91505092915050565b60008115159050919050565b6116fd816116e8565b82525050565b600060208201905061171860008301846116f4565b92915050565b600081519050919050565b600082825260208201905092915050565b60005b8381101561175857808201518184015260208101905061173d565b83811115611767576000848401525b50505050565b6000601f19601f8301169050919050565b60006117898261171e565b6117938185611729565b93506117a381856020860161173a565b6117ac8161176d565b840191505092915050565b600060208201905081810360008301526117d1818461177e565b905092915050565b6000819050919050565b6117ec816117d9565b81146117f757600080fd5b50565b600081359050611809816117e3565b92915050565b60006020828403121561182557611824611659565b5b6000611833848285016117fa565b91505092915050565b600073ffffffffffffffffffffffffffffffffffffffff82169050919050565b60006118678261183c565b9050919050565b6118778161185c565b82525050565b6000602082019050611892600083018461186e565b92915050565b6118a18161185c565b81146118ac57600080fd5b50565b6000813590506118be81611898565b92915050565b600080604083850312156118db576118da611659565b5b60006118e9858286016118af565b92505060206118fa858286016117fa565b9150509250929050565b60008060006060848603121561191d5761191c611659565b5b600061192b868287016118af565b935050602061193c868287016118af565b925050604061194d868287016117fa565b9150509250925092565b60006020828403121561196d5761196c611659565b5b600061197b848285016118af565b91505092915050565b61198d816117d9565b82525050565b60006020820190506119a86000830184611984565b92915050565b6119b7816116e8565b81146119c257600080fd5b50565b6000813590506119d4816119ae565b92915050565b600080604083850312156119f1576119f0611659565b5b60006119ff858286016118af565b9250506020611a10858286016119c5565b9150509250929050565b600080fd5b600080fd5b7f4e487b7100000000000000000000000000000000000000000000000000000000600052604160045260246000fd5b611a5c8261176d565b810181811067ffffffffffffffff82111715611a7b57611a7a611a24565b5b80604052505050565b6000611a8e61164f565b9050611a9a8282611a53565b919050565b600067ffffffffffffffff821115611aba57611ab9611a24565b5b611ac38261176d565b9050602081019050919050565b82818337600083830152505050565b6000611af2611aed84611a9f565b611a84565b905082815260208101848484011115611b0e57611b0d611a1f565b5b611b19848285611ad0565b509392505050565b600082601f830112611b3657611b35611a1a565b5b8135611b46848260208601611adf565b91505092915050565b60008060008060808587031215611b6957611b68611659565b5b6000611b77878288016118af565b9450506020611b88878288016118af565b9350506040611b99878288016117fa565b925050606085013567ffffffffffffffff811115611bba57611bb961165e565b5b611bc687828801611b21565b91505092959194509250565b60008060408385031215611be957611be8611659565b5b6000611bf7858286016118af565b9250506020611c08858286016118af565b9150509250929050565b7f4e487b7100000000000000000000000000000000000000000000000000000000600052602260045260246000fd5b60006002820490506001821680611c5957607f821691505b60208210811415611c6d57611c6c611c12565b5b50919050565b7f4552433732313a20617070726f76616c20746f2063757272656e74206f776e6560008201527f7200000000000000000000000000000000000000000000000000000000000000602082015250565b6000611ccf602183611729565b9150611cda82611c73565b604082019050919050565b60006020820190508181036000830152611cfe81611cc2565b9050919050565b7f4552433732313a20617070726f76652063616c6c6572206973206e6f7420746f60008201527f6b656e206f776e6572206e6f7220617070726f76656420666f7220616c6c0000602082015250565b6000611d61603e83611729565b9150611d6c82611d05565b604082019050919050565b60006020820190508181036000830152611d9081611d54565b9050919050565b7f4552433732313a2063616c6c6572206973206e6f7420746f6b656e206f776e6560008201527f72206e6f7220617070726f766564000000000000000000000000000000000000602082015250565b6000611df3602e83611729565b9150611dfe82611d97565b604082019050919050565b60006020820190508181036000830152611e2281611de6565b9050919050565b7f4552433732313a20696e76616c696420746f6b656e2049440000000000000000600082015250565b6000611e5f601883611729565b9150611e6a82611e29565b602082019050919050565b60006020820190508181036000830152611e8e81611e52565b9050919050565b7f4552433732313a2061646472657373207a65726f206973206e6f74206120766160008201527f6c6964206f776e65720000000000000000000000000000000000000000000000602082015250565b6000611ef1602983611729565b9150611efc82611e95565b604082019050919050565b60006020820190508181036000830152611f2081611ee4565b9050919050565b600081905092915050565b6000611f3d8261171e565b611f478185611f27565b9350611f5781856020860161173a565b80840191505092915050565b6000611f6f8285611f32565b9150611f7b8284611f32565b91508190509392505050565b7f4552433732313a207472616e736665722066726f6d20696e636f72726563742060008201527f6f776e6572000000000000000000000000000000000000000000000000000000602082015250565b6000611fe3602583611729565b9150611fee82611f87565b604082019050919050565b6000602082019050818103600083015261201281611fd6565b9050919050565b7f4552433732313a207472616e7366657220746f20746865207a65726f2061646460008201527f7265737300000000000000000000000000000000000000000000000000000000602082015250565b6000612075602483611729565b915061208082612019565b604082019050919050565b600060208201905081810360008301526120a481612068565b9050919050565b7f4e487b7100000000000000000000000000000000000000000000000000000000600052601160045260246000fd5b60006120e5826117d9565b91506120f0836117d9565b925082821015612103576121026120ab565b5b828203905092915050565b6000612119826117d9565b9150612124836117d9565b9250827fffffffffffffffffffffffffffffffffffffffffffffffffffffffffffffffff03821115612159576121586120ab565b5b828201905092915050565b7f4552433732313a206d696e7420746f20746865207a65726f2061646472657373600082015250565b600061219a602083611729565b91506121a582612164565b602082019050919050565b600060208201905081810360008301526121c98161218d565b9050919050565b7f4552433732313a20746f6b656e20616c7265616479206d696e74656400000000600082015250565b6000612206601c83611729565b9150612211826121d0565b602082019050919050565b60006020820190508181036000830152612235816121f9565b9050919050565b7f4552433732313a20617070726f766520746f2063616c6c657200000000000000600082015250565b6000612272601983611729565b915061227d8261223c565b602082019050919050565b600060208201905081810360008301526122a181612265565b9050919050565b7f4552433732313a207472616e7366657220746f206e6f6e20455243373231526560008201527f63656976657220696d706c656d656e7465720000000000000000000000000000602082015250565b6000612304603283611729565b915061230f826122a8565b604082019050919050565b60006020820190508181036000830152612333816122f7565b9050919050565b6000612345826117d9565b91507fffffffffffffffffffffffffffffffffffffffffffffffffffffffffffffffff821415612378576123776120ab565b5b600182019050919050565b7f4e487b7100000000000000000000000000000000000000000000000000000000600052601260045260246000fd5b60006123bd826117d9565b91506123c8836117d9565b9250826123d8576123d7612383565b5b828204905092915050565b60006123ee826117d9565b91506123f9836117d9565b92508261240957612408612383565b5b828206905092915050565b7f4e487b7100000000000000000000000000000000000000000000000000000000600052603260045260246000fd5b600081519050919050565b600082825260208201905092915050565b600061246a82612443565b612474818561244e565b935061248481856020860161173a565b61248d8161176d565b840191505092915050565b60006080820190506124ad600083018761186e565b6124ba602083018661186e565b6124c76040830185611984565b81810360608301526124d9818461245f565b905095945050505050565b6000815190506124f38161168f565b92915050565b60006020828403121561250f5761250e611659565b5b600061251d848285016124e4565b9150509291505056fea26469706673582212209156dc569b4e946b9397bb1a903ed073669813771825f590f7bd4a48e89b349d64736f6c63430008090033",
  "linkReferences": {},
  "deployedLinkReferences": {}
}