{
  "_format": "hh-sol-artifact-1",
  "contractName": "StudentNFT",
  "sourceName": "contracts/StudentNFT.sol",
  "abi": [
    {
      "inputs": [
        {
          "internalType": "string",
          "name": "name",
          "type": "string"
        },
        {
          "internalType": "string",
          "name": "symbol",
          "type": "string"
        }
      ],
      "stateMutability": "nonpayable",
      "type": "constructor"
    },
    {
      "anonymous": false,
      "inputs": [
        {
          "indexed": true,
          "internalType": "address",
          "name": "owner",
          "type": "address"
        },
        {
          "indexed": true,
          "internalType": "address",
          "name": "approved",
          "type": "address"
        },
        {
          "indexed": true,
          "internalType": "uint256",
          "name": "tokenId",
          "type": "uint256"
        }
      ],
      "name": "Approval",
      "type": "event"
    },
    {
      "anonymous": false,
      "inputs": [
        {
          "indexed": true,
          "internalType": "address",
          "name": "owner",
          "type": "address"
        },
        {
          "indexed": true,
          "internalType": "address",
          "name": "operator",
          "type": "address"
        },
        {
          "indexed": false,
          "internalType": "bool",
          "name": "approved",
          "type": "bool"
        }
      ],
      "name": "ApprovalForAll",
      "type": "event"
    },
    {
      "anonymous": false,
      "inputs": [
        {
          "indexed": true,
          "internalType": "address",
          "name": "from",
          "type": "address"
        },
        {
          "indexed": true,
          "internalType": "address",
          "name": "to",
          "type": "address"
        },
        {
          "indexed": true,
          "internalType": "uint256",
          "name": "tokenId",
          "type": "uint256"
        }
      ],
      "name": "Transfer",
      "type": "event"
    },
    {
      "inputs": [
        {
          "internalType": "address",
          "name": "to",
          "type": "address"
        },
        {
          "internalType": "uint256",
          "name": "tokenId",
          "type": "uint256"
        }
      ],
      "name": "approve",
      "outputs": [],
      "stateMutability": "nonpayable",
      "type": "function"
    },
    {
      "inputs": [
        {
          "internalType": "address",
          "name": "owner",
          "type": "address"
        }
      ],
      "name": "balanceOf",
      "outputs": [
        {
          "internalType": "uint256",
          "name": "",
          "type": "uint256"
        }
      ],
      "stateMutability": "view",
      "type": "function"
    },
    {
      "inputs": [
        {
          "internalType": "uint256",
          "name": "tokenId",
          "type": "uint256"
        }
      ],
      "name": "getApproved",
      "outputs": [
        {
          "internalType": "address",
          "name": "",
          "type": "address"
        }
      ],
      "stateMutability": "view",
      "type": "function"
    },
    {
      "inputs": [
        {
          "internalType": "address",
          "name": "owner",
          "type": "address"
        },
        {
          "internalType": "address",
          "name": "operator",
          "type": "address"
        }
      ],
      "name": "isApprovedForAll",
      "outputs": [
        {
          "internalType": "bool",
          "name": "",
          "type": "bool"
        }
      ],
      "stateMutability": "view",
      "type": "function"
    },
    {
      "inputs": [],
      "name": "manager",
      "outputs": [
        {
          "internalType": "address",
          "name": "",
          "type": "address"
        }
      ],
      "stateMutability": "view",
      "type": "function"
    },
    {
      "inputs": [
        {
          "internalType": "address",
          "name": "to",
          "type": "address"
        },
        {
          "internalType": "uint256",
          "name": "tokenid",
          "type": "uint256"
        }
      ],
      "name": "mint",
      "outputs": [],
      "stateMutability": "nonpayable",
      "type": "function"
    },
    {
      "inputs": [],
      "name": "name",
      "outputs": [
        {
          "internalType": "string",
          "name": "",
          "type": "string"
        }
      ],
      "stateMutability": "view",
      "type": "function"
    },
    {
      "inputs": [
        {
          "internalType": "uint256",
          "name": "tokenId",
          "type": "uint256"
        }
      ],
      "name": "ownerOf",
      "outputs": [
        {
          "internalType": "address",
          "name": "",
          "type": "address"
        }
      ],
      "stateMutability": "view",
      "type": "function"
    },
    {
      "inputs": [
        {
          "internalType": "address",
          "name": "from",
          "type": "address"
        },
        {
          "internalType": "address",
          "name": "to",
          "type": "address"
        },
        {
          "internalType": "uint256",
          "name": "tokenId",
          "type": "uint256"
        }
      ],
      "name": "safeTransferFrom",
      "outputs": [],
      "stateMutability": "nonpayable",
      "type": "function"
    },
    {
      "inputs": [
        {
          "internalType": "address",
          "name": "from",
          "type": "address"
        },
        {
          "internalType": "address",
          "name": "to",
          "type": "address"
        },
        {
          "internalType": "uint256",
          "name": "tokenId",
          "type": "uint256"
        },
        {
          "internalType": "bytes",
          "name": "data",
          "type": "bytes"
        }
      ],
      "name": "safeTransferFrom",
      "outputs": [],
      "stateMutability": "nonpayable",
      "type": "function"
    },
    {
      "inputs": [
        {
          "internalType": "address",
          "name": "operator",
          "type": "address"
        },
        {
          "internalType": "bool",
          "name": "approved",
          "type": "bool"
        }
      ],
      "name": "setApprovalForAll",
      "outputs": [],
      "stateMutability": "nonpayable",
      "type": "function"
    },
    {
      "inputs": [
        {
          "internalType": "bytes4",
          "name": "interfaceId",
          "type": "bytes4"
        }
      ],
      "name": "supportsInterface",
      "outputs": [
        {
          "internalType": "bool",
          "name": "",
          "type": "bool"
        }
      ],
      "stateMutability": "view",
      "type": "function"
    },
    {
      "inputs": [],
      "name": "symbol",
      "outputs": [
        {
          "internalType": "string",
          "name": "",
          "type": "string"
        }
      ],
      "stateMutability": "view",
      "type": "function"
    },
    {
      "inputs": [
        {
          "internalType": "uint256",
          "name": "tokenId",
          "type": "uint256"
        }
      ],
      "name": "tokenURI",
      "outputs": [
        {
          "internalType": "string",
          "name": "",
          "type": "string"
        }
      ],
      "stateMutability": "view",
      "type": "function"
    },
    {
      "inputs": [
        {
          "internalType": "address",
          "name": "from",
          "type": "address"
        },
        {
          "internalType": "address",
          "name": "to",
          "type": "address"
        },
        {
          "internalType": "uint256",
          "name": "tokenId",
          "type": "uint256"
        }
      ],
      "name": "transferFrom",
      "outputs": [],
      "stateMutability": "nonpayable",
      "type": "function"
    }
  ],
  "bytecode": "0x60806040523480156200001157600080fd5b506040516200295938038062002959833981810160405281019062000037919062000303565b8181816000908051906020019062000051929190620000b6565b5080600190805190602001906200006a929190620000b6565b50505033600660006101000a81548173ffffffffffffffffffffffffffffffffffffffff021916908373ffffffffffffffffffffffffffffffffffffffff1602179055505050620003ed565b828054620000c490620003b7565b90600052602060002090601f016020900481019282620000e8576000855562000134565b82601f106200010357805160ff191683800117855562000134565b8280016001018555821562000134579182015b828111156200013357825182559160200191906001019062000116565b5b50905062000143919062000147565b5090565b5b808211156200016257600081600090555060010162000148565b5090565b6000604051905090565b600080fd5b600080fd5b600080fd5b600080fd5b6000601f19601f8301169050919050565b7f4e487b7100000000000000000000000000000000000000000000000000000000600052604160045260246000fd5b620001cf8262000184565b810181811067ffffffffffffffff82111715620001f157620001f062000195565b5b80604052505050565b60006200020662000166565b9050620002148282620001c4565b919050565b600067ffffffffffffffff82111562000237576200023662000195565b5b620002428262000184565b9050602081019050919050565b60005b838110156200026f57808201518184015260208101905062000252565b838111156200027f576000848401525b50505050565b60006200029c620002968462000219565b620001fa565b905082815260208101848484011115620002bb57620002ba6200017f565b5b620002c88482856200024f565b509392505050565b600082601f830112620002e857620002e76200017a565b5b8151620002fa84826020860162000285565b91505092915050565b600080604083850312156200031d576200031c62000170565b5b600083015167ffffffffffffffff8111156200033e576200033d62000175565b5b6200034c85828601620002d0565b925050602083015167ffffffffffffffff81111562000370576200036f62000175565b5b6200037e85828601620002d0565b9150509250929050565b7f4e487b7100000000000000000000000000000000000000000000000000000000600052602260045260246000fd5b60006002820490506001821680620003d057607f821691505b60208210811415620003e757620003e662000388565b5b50919050565b61255c80620003fd6000396000f3fe608060405234801561001057600080fd5b50600436106100f55760003560e01c8063481c6a7511610097578063a22cb46511610066578063a22cb46514610284578063b88d4fde146102a0578063c87b56dd146102bc578063e985e9c5146102ec576100f5565b8063481c6a75146101e85780636352211e1461020657806370a082311461023657806395d89b4114610266576100f5565b8063095ea7b3116100d3578063095ea7b31461017857806323b872dd1461019457806340c10f19146101b057806342842e0e146101cc576100f5565b806301ffc9a7146100fa57806306fdde031461012a578063081812fc14610148575b600080fd5b610114600480360381019061010f91906116bb565b61031c565b6040516101219190611703565b60405180910390f35b6101326103fe565b60405161013f91906117b7565b60405180910390f35b610162600480360381019061015d919061180f565b610490565b60405161016f919061187d565b60405180910390f35b610192600480360381019061018d91906118c4565b6104d6565b005b6101ae60048036038101906101a99190611904565b6105ee565b005b6101ca60048036038101906101c591906118c4565b61064e565b005b6101e660048036038101906101e19190611904565b6106b6565b005b6101f06106d6565b6040516101fd919061187d565b60405180910390f35b610220600480360381019061021b919061180f565b6106fc565b60405161022d919061187d565b60405180910390f35b610250600480360381019061024b9190611957565b6107ae565b60405161025d9190611993565b60405180910390f35b61026e610866565b60405161027b91906117b7565b60405180910390f35b61029e600480360381019061029991906119da565b6108f8565b005b6102ba60048036038101906102b59190611b4f565b61090e565b005b6102d660048036038101906102d1919061180f565b610970565b6040516102e391906117b7565b60405180910390f35b61030660048036038101906103019190611bd2565b6109d8565b6040516103139190611703565b60405180910390f35b60007f80ac58cd000000000000000000000000000000000000000000000000000000007bffffffffffffffffffffffffffffffffffffffffffffffffffffffff1916827bffffffffffffffffffffffffffffffffffffffffffffffffffffffff191614806103e757507f5b5e139f000000000000000000000000000000000000000000000000000000007bffffffffffffffffffffffffffffffffffffffffffffffffffffffff1916827bffffffffffffffffffffffffffffffffffffffffffffffffffffffff1916145b806103f757506103f682610a6c565b5b9050919050565b60606000805461040d90611c41565b80601f016020809104026020016040519081016040528092919081815260200182805461043990611c41565b80156104865780601f1061045b57610100808354040283529160200191610486565b820191906000526020600020905b81548152906001019060200180831161046957829003601f168201915b5050505050905090565b600061049b82610ad6565b6004600083815260200190815260200160002060009054906101000a900473ffffffffffffffffffffffffffffffffffffffff169050919050565b60006104e1826106fc565b90508073ffffffffffffffffffffffffffffffffffffffff168373ffffffffffffffffffffffffffffffffffffffff161415610552576040517f08c379a000000000000000000000000000000000000000000000000000000000815260040161054990611ce5565b60405180910390fd5b8073ffffffffffffffffffffffffffffffffffffffff16610571610b21565b73ffffffffffffffffffffffffffffffffffffffff1614806105a0575061059f8161059a610b21565b6109d8565b5b6105df576040517f08c379a00000000000000000000000000000000000000000000000000000000081526004016105d690611d77565b60405180910390fd5b6105e98383610b29565b505050565b6105ff6105f9610b21565b82610be2565b61063e576040517f08c379a000000000000000000000000000000000000000000000000000000000815260040161063590611e09565b60405180910390fd5b610649838383610c77565b505050565b600660009054906101000a900473ffffffffffffffffffffffffffffffffffffffff1673ffffffffffffffffffffffffffffffffffffffff163373ffffffffffffffffffffffffffffffffffffffff16146106a857600080fd5b6106b28282610ede565b5050565b6106d18383836040518060200160405280600081525061090e565b505050565b600660009054906101000a900473ffffffffffffffffffffffffffffffffffffffff1681565b6000806002600084815260200190815260200160002060009054906101000a900473ffffffffffffffffffffffffffffffffffffffff169050600073ffffffffffffffffffffffffffffffffffffffff168173ffffffffffffffffffffffffffffffffffffffff1614156107a5576040517f08c379a000000000000000000000000000000000000000000000000000000000815260040161079c90611e75565b60405180910390fd5b80915050919050565b60008073ffffffffffffffffffffffffffffffffffffffff168273ffffffffffffffffffffffffffffffffffffffff16141561081f576040517f08c379a000000000000000000000000000000000000000000000000000000000815260040161081690611f07565b60405180910390fd5b600360008373ffffffffffffffffffffffffffffffffffffffff1673ffffffffffffffffffffffffffffffffffffffff168152602001908152602001600020549050919050565b60606001805461087590611c41565b80601f01602080910402602001604051908101604052809291908181526020018280546108a190611c41565b80156108ee5780601f106108c3576101008083540402835291602001916108ee565b820191906000526020600020905b8154815290600101906020018083116108d157829003601f168201915b5050505050905090565b61090a610903610b21565b83836110b8565b5050565b61091f610919610b21565b83610be2565b61095e576040517f08c379a000000000000000000000000000000000000000000000000000000000815260040161095590611e09565b60405180910390fd5b61096a84848484611225565b50505050565b606061097b82610ad6565b6000610985611281565b905060008151116109a557604051806020016040528060008152506109d0565b806109af846112be565b6040516020016109c0929190611f63565b6040516020818303038152906040525b915050919050565b6000600560008473ffffffffffffffffffffffffffffffffffffffff1673ffffffffffffffffffffffffffffffffffffffff16815260200190815260200160002060008373ffffffffffffffffffffffffffffffffffffffff1673ffffffffffffffffffffffffffffffffffffffff16815260200190815260200160002060009054906101000a900460ff16905092915050565b60007f01ffc9a7000000000000000000000000000000000000000000000000000000007bffffffffffffffffffffffffffffffffffffffffffffffffffffffff1916827bffffffffffffffffffffffffffffffffffffffffffffffffffffffff1916149050919050565b610adf8161141f565b610b1e576040517f08c379a0000000000000000000000000000000000000000000000000000000008152600401610b1590611e75565b60405180910390fd5b50565b600033905090565b816004600083815260200190815260200160002060006101000a81548173ffffffffffffffffffffffffffffffffffffffff021916908373ffffffffffffffffffffffffffffffffffffffff160217905550808273ffffffffffffffffffffffffffffffffffffffff16610b9c836106fc565b73ffffffffffffffffffffffffffffffffffffffff167f8c5be1e5ebec7d5bd14f71427d1e84f3dd0314c0f7b2291e5b200ac8c7c3b92560405160405180910390a45050565b600080610bee836106fc565b90508073ffffffffffffffffffffffffffffffffffffffff168473ffffffffffffffffffffffffffffffffffffffff161480610c305750610c2f81856109d8565b5b80610c6e57508373ffffffffffffffffffffffffffffffffffffffff16610c5684610490565b73ffffffffffffffffffffffffffffffffffffffff16145b91505092915050565b8273ffffffffffffffffffffffffffffffffffffffff16610c97826106fc565b73ffffffffffffffffffffffffffffffffffffffff1614610ced576040517f08c379a0000000000000000000000000000000000000000000000000000000008152600401610ce490611ff9565b60405180910390fd5b600073ffffffffffffffffffffffffffffffffffffffff168273ffffffffffffffffffffffffffffffffffffffff161415610d5d576040517f08c379a0000000000000000000000000000000000000000000000000000000008152600401610d549061208b565b60405180910390fd5b610d6883838361148b565b610d73600082610b29565b6001600360008573ffffffffffffffffffffffffffffffffffffffff1673ffffffffffffffffffffffffffffffffffffffff1681526020019081526020016000206000828254610dc391906120da565b925050819055506001600360008473ffffffffffffffffffffffffffffffffffffffff1673ffffffffffffffffffffffffffffffffffffffff1681526020019081526020016000206000828254610e1a919061210e565b92505081905550816002600083815260200190815260200160002060006101000a81548173ffffffffffffffffffffffffffffffffffffffff021916908373ffffffffffffffffffffffffffffffffffffffff160217905550808273ffffffffffffffffffffffffffffffffffffffff168473ffffffffffffffffffffffffffffffffffffffff167fddf252ad1be2c89b69c2b068fc378daa952ba7f163c4a11628f55a4df523b3ef60405160405180910390a4610ed9838383611490565b505050565b600073ffffffffffffffffffffffffffffffffffffffff168273ffffffffffffffffffffffffffffffffffffffff161415610f4e576040517f08c379a0000000000000000000000000000000000000000000000000000000008152600401610f45906121b0565b60405180910390fd5b610f578161141f565b15610f97576040517f08c379a0000000000000000000000000000000000000000000000000000000008152600401610f8e9061221c565b60405180910390fd5b610fa36000838361148b565b6001600360008473ffffffffffffffffffffffffffffffffffffffff1673ffffffffffffffffffffffffffffffffffffffff1681526020019081526020016000206000828254610ff3919061210e565b92505081905550816002600083815260200190815260200160002060006101000a81548173ffffffffffffffffffffffffffffffffffffffff021916908373ffffffffffffffffffffffffffffffffffffffff160217905550808273ffffffffffffffffffffffffffffffffffffffff16600073ffffffffffffffffffffffffffffffffffffffff167fddf252ad1be2c89b69c2b068fc378daa952ba7f163c4a11628f55a4df523b3ef60405160405180910390a46110b460008383611490565b5050565b8173ffffffffffffffffffffffffffffffffffffffff168373ffffffffffffffffffffffffffffffffffffffff161415611127576040517f08c379a000000000000000000000000000000000000000000000000000000000815260040161111e90612288565b60405180910390fd5b80600560008573ffffffffffffffffffffffffffffffffffffffff1673ffffffffffffffffffffffffffffffffffffffff16815260200190815260200160002060008473ffffffffffffffffffffffffffffffffffffffff1673ffffffffffffffffffffffffffffffffffffffff16815260200190815260200160002060006101000a81548160ff0219169083151502179055508173ffffffffffffffffffffffffffffffffffffffff168373ffffffffffffffffffffffffffffffffffffffff167f17307eab39ab6107e8899845ad3d59bd9653f200f220920489ca2b5937696c31836040516112189190611703565b60405180910390a3505050565b611230848484610c77565b61123c84848484611495565b61127b576040517f08c379a00000000000000000000000000000000000000000000000000000000081526004016112729061231a565b60405180910390fd5b50505050565b60606040518060400160405280601681526020017f687474703a2f2f3132372e302e302e313a333030302f00000000000000000000815250905090565b60606000821415611306576040518060400160405280600181526020017f3000000000000000000000000000000000000000000000000000000000000000815250905061141a565b600082905060005b600082146113385780806113219061233a565b915050600a8261133191906123b2565b915061130e565b60008167ffffffffffffffff81111561135457611353611a24565b5b6040519080825280601f01601f1916602001820160405280156113865781602001600182028036833780820191505090505b5090505b600085146114135760018261139f91906120da565b9150600a856113ae91906123e3565b60306113ba919061210e565b60f81b8183815181106113d0576113cf612414565b5b60200101907effffffffffffffffffffffffffffffffffffffffffffffffffffffffffffff1916908160001a905350600a8561140c91906123b2565b945061138a565b8093505050505b919050565b60008073ffffffffffffffffffffffffffffffffffffffff166002600084815260200190815260200160002060009054906101000a900473ffffffffffffffffffffffffffffffffffffffff1673ffffffffffffffffffffffffffffffffffffffff1614159050919050565b505050565b505050565b60006114b68473ffffffffffffffffffffffffffffffffffffffff1661162c565b1561161f578373ffffffffffffffffffffffffffffffffffffffff1663150b7a026114df610b21565b8786866040518563ffffffff1660e01b81526004016115019493929190612498565b602060405180830381600087803b15801561151b57600080fd5b505af192505050801561154c57506040513d601f19601f8201168201806040525081019061154991906124f9565b60015b6115cf573d806000811461157c576040519150601f19603f3d011682016040523d82523d6000602084013e611581565b606091505b506000815114156115c7576040517f08c379a00000000000000000000000000000000000000000000000000000000081526004016115be9061231a565b60405180910390fd5b805181602001fd5b63150b7a0260e01b7bffffffffffffffffffffffffffffffffffffffffffffffffffffffff1916817bffffffffffffffffffffffffffffffffffffffffffffffffffffffff191614915050611624565b600190505b949350505050565b6000808273ffffffffffffffffffffffffffffffffffffffff163b119050919050565b6000604051905090565b600080fd5b600080fd5b60007fffffffff0000000000000000000000000000000000000000000000000000000082169050919050565b61169881611663565b81146116a357600080fd5b50565b6000813590506116b58161168f565b92915050565b6000602082840312156116d1576116d0611659565b5b60006116df848285016116a6565b91505092915050565b60008115159050919050565b6116fd816116e8565b82525050565b600060208201905061171860008301846116f4565b92915050565b600081519050919050565b600082825260208201905092915050565b60005b8381101561175857808201518184015260208101905061173d565b83811115611767576000848401525b50505050565b6000601f19601f8301169050919050565b60006117898261171e565b6117938185611729565b93506117a381856020860161173a565b6117ac8161176d565b840191505092915050565b600060208201905081810360008301526117d1818461177e565b905092915050565b6000819050919050565b6117ec816117d9565b81146117f757600080fd5b50565b600081359050611809816117e3565b92915050565b60006020828403121561182557611824611659565b5b6000611833848285016117fa565b91505092915050565b600073ffffffffffffffffffffffffffffffffffffffff82169050919050565b60006118678261183c565b9050919050565b6118778161185c565b82525050565b6000602082019050611892600083018461186e565b92915050565b6118a18161185c565b81146118ac57600080fd5b50565b6000813590506118be81611898565b92915050565b600080604083850312156118db576118da611659565b5b60006118e9858286016118af565b92505060206118fa858286016117fa565b9150509250929050565b60008060006060848603121561191d5761191c611659565b5b600061192b868287016118af565b935050602061193c868287016118af565b925050604061194d868287016117fa565b9150509250925092565b60006020828403121561196d5761196c611659565b5b600061197b848285016118af565b91505092915050565b61198d816117d9565b82525050565b60006020820190506119a86000830184611984565b92915050565b6119b7816116e8565b81146119c257600080fd5b50565b6000813590506119d4816119ae565b92915050565b600080604083850312156119f1576119f0611659565b5b60006119ff858286016118af565b9250506020611a10858286016119c5565b9150509250929050565b600080fd5b600080fd5b7f4e487b7100000000000000000000000000000000000000000000000000000000600052604160045260246000fd5b611a5c8261176d565b810181811067ffffffffffffffff82111715611a7b57611a7a611a24565b5b80604052505050565b6000611a8e61164f565b9050611a9a8282611a53565b919050565b600067ffffffffffffffff821115611aba57611ab9611a24565b5b611ac38261176d565b9050602081019050919050565b82818337600083830152505050565b6000611af2611aed84611a9f565b611a84565b905082815260208101848484011115611b0e57611b0d611a1f565b5b611b19848285611ad0565b509392505050565b600082601f830112611b3657611b35611a1a565b5b8135611b46848260208601611adf565b91505092915050565b60008060008060808587031215611b6957611b68611659565b5b6000611b77878288016118af565b9450506020611b88878288016118af565b9350506040611b99878288016117fa565b925050606085013567ffffffffffffffff811115611bba57611bb961165e565b5b611bc687828801611b21565b91505092959194509250565b60008060408385031215611be957611be8611659565b5b6000611bf7858286016118af565b9250506020611c08858286016118af565b9150509250929050565b7f4e487b7100000000000000000000000000000000000000000000000000000000600052602260045260246000fd5b60006002820490506001821680611c5957607f821691505b60208210811415611c6d57611c6c611c12565b5b50919050565b7f4552433732313a20617070726f76616c20746f2063757272656e74206f776e6560008201527f7200000000000000000000000000000000000000000000000000000000000000602082015250565b6000611ccf602183611729565b9150611cda82611c73565b604082019050919050565b60006020820190508181036000830152611cfe81611cc2565b9050919050565b7f4552433732313a20617070726f76652063616c6c6572206973206e6f7420746f60008201527f6b656e206f776e6572206e6f7220617070726f76656420666f7220616c6c0000602082015250565b6000611d61603e83611729565b9150611d6c82611d05565b604082019050919050565b60006020820190508181036000830152611d9081611d54565b9050919050565b7f4552433732313a2063616c6c6572206973206e6f7420746f6b656e206f776e6560008201527f72206e6f7220617070726f766564000000000000000000000000000000000000602082015250565b6000611df3602e83611729565b9150611dfe82611d97565b604082019050919050565b60006020820190508181036000830152611e2281611de6565b9050919050565b7f4552433732313a20696e76616c696420746f6b656e2049440000000000000000600082015250565b6000611e5f601883611729565b9150611e6a82611e29565b602082019050919050565b60006020820190508181036000830152611e8e81611e52565b9050919050565b7f4552433732313a2061646472657373207a65726f206973206e6f74206120766160008201527f6c6964206f776e65720000000000000000000000000000000000000000000000602082015250565b6000611ef1602983611729565b9150611efc82611e95565b604082019050919050565b60006020820190508181036000830152611f2081611ee4565b9050919050565b600081905092915050565b6000611f3d8261171e565b611f478185611f27565b9350611f5781856020860161173a565b80840191505092915050565b6000611f6f8285611f32565b9150611f7b8284611f32565b91508190509392505050565b7f4552433732313a207472616e736665722066726f6d20696e636f72726563742060008201527f6f776e6572000000000000000000000000000000000000000000000000000000602082015250565b6000611fe3602583611729565b9150611fee82611f87565b604082019050919050565b6000602082019050818103600083015261201281611fd6565b9050919050565b7f4552433732313a207472616e7366657220746f20746865207a65726f2061646460008201527f7265737300000000000000000000000000000000000000000000000000000000602082015250565b6000612075602483611729565b915061208082612019565b604082019050919050565b600060208201905081810360008301526120a481612068565b9050919050565b7f4e487b7100000000000000000000000000000000000000000000000000000000600052601160045260246000fd5b60006120e5826117d9565b91506120f0836117d9565b925082821015612103576121026120ab565b5b828203905092915050565b6000612119826117d9565b9150612124836117d9565b9250827fffffffffffffffffffffffffffffffffffffffffffffffffffffffffffffffff03821115612159576121586120ab565b5b828201905092915050565b7f4552433732313a206d696e7420746f20746865207a65726f2061646472657373600082015250565b600061219a602083611729565b91506121a582612164565b602082019050919050565b600060208201905081810360008301526121c98161218d565b9050919050565b7f4552433732313a20746f6b656e20616c7265616479206d696e74656400000000600082015250565b6000612206601c83611729565b9150612211826121d0565b602082019050919050565b60006020820190508181036000830152612235816121f9565b9050919050565b7f4552433732313a20617070726f766520746f2063616c6c657200000000000000600082015250565b6000612272601983611729565b915061227d8261223c565b602082019050919050565b600060208201905081810360008301526122a181612265565b9050919050565b7f4552433732313a207472616e7366657220746f206e6f6e20455243373231526560008201527f63656976657220696d706c656d656e7465720000000000000000000000000000602082015250565b6000612304603283611729565b915061230f826122a8565b604082019050919050565b60006020820190508181036000830152612333816122f7565b9050919050565b6000612345826117d9565b91507fffffffffffffffffffffffffffffffffffffffffffffffffffffffffffffffff821415612378576123776120ab565b5b600182019050919050565b7f4e487b7100000000000000000000000000000000000000000000000000000000600052601260045260246000fd5b60006123bd826117d9565b91506123c8836117d9565b9250826123d8576123d7612383565b5b828204905092915050565b60006123ee826117d9565b91506123f9836117d9565b92508261240957612408612383565b5b828206905092915050565b7f4e487b7100000000000000000000000000000000000000000000000000000000600052603260045260246000fd5b600081519050919050565b600082825260208201905092915050565b600061246a82612443565b612474818561244e565b935061248481856020860161173a565b61248d8161176d565b840191505092915050565b60006080820190506124ad600083018761186e565b6124ba602083018661186e565b6124c76040830185611984565b81810360608301526124d9818461245f565b905095945050505050565b6000815190506124f38161168f565b92915050565b60006020828403121561250f5761250e611659565b5b600061251d848285016124e4565b9150509291505056fea26469706673582212209156dc569b4e946b9397bb1a903ed073669813771825f590f7bd4a48e89b349d64736f6c63430008090033",
  "linkReferences": {},
  "deployedLinkReferences": {}
}