{
  "_format": "hh-sol-artifact-1",
  "contractName": "StudentSocietyDAO",
  "sourceName": "contracts/StudentSocietyDAO.sol",
  "abi": [
    {
      "inputs": [],
      "stateMutability": "nonpayable",
      "type": "constructor"
    },
    {
      "anonymous": false,
      "inputs": [
        {
          "indexed": false,
          "internalType": "uint32",
          "name": "proposalIndex",
          "type": "uint32"
        }
      ],
      "name": "ProposalInitiated",
      "type": "event"
    },
    {
      "inputs": [
        {
          "internalType": "uint32",
          "name": "index",
          "type": "uint32"
        }
      ],
      "name": "getDuration",
      "outputs": [
        {
          "internalType": "uint256",
          "name": "",
          "type": "uint256"
        }
      ],
      "stateMutability": "view",
      "type": "function"
    },
    {
      "inputs": [
        {
          "internalType": "uint32",
          "name": "index",
          "type": "uint32"
        }
      ],
      "name": "getName",
      "outputs": [
        {
          "internalType": "string",
          "name": "",
          "type": "string"
        }
      ],
      "stateMutability": "view",
      "type": "function"
    },
    {
      "inputs": [
        {
          "internalType": "uint32",
          "name": "index",
          "type": "uint32"
        }
      ],
      "name": "getNo",
      "outputs": [
        {
          "internalType": "uint32",
          "name": "",
          "type": "uint32"
        }
      ],
      "stateMutability": "view",
      "type": "function"
    },
    {
      "inputs": [],
      "name": "getProposalNum",
      "outputs": [
        {
          "internalType": "uint256",
          "name": "",
          "type": "uint256"
        }
      ],
      "stateMutability": "view",
      "type": "function"
    },
    {
      "inputs": [
        {
          "internalType": "uint32",
          "name": "index",
          "type": "uint32"
        }
      ],
      "name": "getStartTime",
      "outputs": [
        {
          "internalType": "uint256",
          "name": "",
          "type": "uint256"
        }
      ],
      "stateMutability": "view",
      "type": "function"
    },
    {
      "inputs": [
        {
          "internalType": "uint32",
          "name": "index",
          "type": "uint32"
        }
      ],
      "name": "getYes",
      "outputs": [
        {
          "internalType": "uint32",
          "name": "",
          "type": "uint32"
        }
      ],
      "stateMutability": "view",
      "type": "function"
    },
    {
      "inputs": [
        {
          "internalType": "uint32",
          "name": "amount",
          "type": "uint32"
        },
        {
          "internalType": "string",
          "name": "name",
          "type": "string"
        },
        {
          "internalType": "uint256",
          "name": "duration",
          "type": "uint256"
        }
      ],
      "name": "newProposal",
      "outputs": [
        {
          "internalType": "uint32",
          "name": "proposalIndex",
          "type": "uint32"
        }
      ],
      "stateMutability": "nonpayable",
      "type": "function"
    },
    {
      "inputs": [],
      "name": "proposalNum",
      "outputs": [
        {
          "internalType": "uint32",
          "name": "",
          "type": "uint32"
        }
      ],
      "stateMutability": "view",
      "type": "function"
    },
    {
      "inputs": [
        {
          "internalType": "uint32",
          "name": "",
          "type": "uint32"
        }
      ],
      "name": "proposals",
      "outputs": [
        {
          "internalType": "uint32",
          "name": "index",
          "type": "uint32"
        },
        {
          "internalType": "address",
          "name": "proposer",
          "type": "address"
        },
        {
          "internalType": "uint256",
          "name": "startTime",
          "type": "uint256"
        },
        {
          "internalType": "uint256",
          "name": "duration",
          "type": "uint256"
        },
        {
          "internalType": "string",
          "name": "name",
          "type": "string"
        },
        {
          "internalType": "uint32",
          "name": "yes",
          "type": "uint32"
        },
        {
          "internalType": "uint32",
          "name": "no",
          "type": "uint32"
        }
      ],
      "stateMutability": "view",
      "type": "function"
    },
    {
      "inputs": [],
      "name": "studentERC20",
      "outputs": [
        {
          "internalType": "contract SocietyCredit",
          "name": "",
          "type": "address"
        }
      ],
      "stateMutability": "view",
      "type": "function"
    },
    {
      "inputs": [
        {
          "internalType": "uint32",
          "name": "index",
          "type": "uint32"
        },
        {
          "internalType": "bool",
          "name": "support",
          "type": "bool"
        },
        {
          "internalType": "uint32",
          "name": "amount",
          "type": "uint32"
        }
      ],
      "name": "vote",
      "outputs": [],
      "stateMutability": "nonpayable",
      "type": "function"
    }
  ],
  "bytecode": "0x60806040523480156200001157600080fd5b506040516200002090620000b0565b6200002b906200016f565b604051809103906000f08015801562000048573d6000803e3d6000fd5b50600060046101000a81548173ffffffffffffffffffffffffffffffffffffffff021916908373ffffffffffffffffffffffffffffffffffffffff16021790555060008060006101000a81548163ffffffff021916908363ffffffff160217905550620001a6565b611990806200179d83390190565b600082825260208201905092915050565b7f73747564656e7445524332300000000000000000000000000000000000000000600082015250565b600062000107600c83620000be565b91506200011482620000cf565b602082019050919050565b7f5354550000000000000000000000000000000000000000000000000000000000600082015250565b600062000157600383620000be565b915062000164826200011f565b602082019050919050565b600060408201905081810360008301526200018a81620000f8565b905081810360208301526200019f8162000148565b9050919050565b6115e780620001b66000396000f3fe608060405234801561001057600080fd5b50600436106100a95760003560e01c806359f00ddf1161007157806359f00ddf146101905780636c3fbb2d146101c0578063987720b5146101de5780639f2f19421461020e578063a42765331461022c578063e56004811461024a576100a9565b806308653de1146100ae578063238dd991146100de5780632a4910ab1461010e578063356f999914610144578063550891da14610174575b600080fd5b6100c860048036038101906100c39190610cf1565b61027a565b6040516100d59190610d2d565b60405180910390f35b6100f860048036038101906100f39190610ec4565b6102b6565b6040516101059190610d2d565b60405180910390f35b61012860048036038101906101239190610cf1565b6106a2565b60405161013b979695949392919061100b565b60405180910390f35b61015e60048036038101906101599190610cf1565b6107bc565b60405161016b9190611081565b60405180910390f35b61018e600480360381019061018991906110d4565b6107e8565b005b6101aa60048036038101906101a59190610cf1565b610a89565b6040516101b79190611081565b60405180910390f35b6101c8610ab5565b6040516101d59190611186565b60405180910390f35b6101f860048036038101906101f39190610cf1565b610adb565b6040516102059190610d2d565b60405180910390f35b610216610b17565b6040516102239190610d2d565b60405180910390f35b610234610b2b565b6040516102419190611081565b60405180910390f35b610264600480360381019061025f9190610cf1565b610b4a565b60405161027191906111a1565b60405180910390f35b6000600160008363ffffffff1663ffffffff16815260200190815260200160002060040160049054906101000a900463ffffffff169050919050565b600061012c63ffffffff168463ffffffff161015610309576040517f08c379a000000000000000000000000000000000000000000000000000000000815260040161030090611235565b60405180910390fd5b600060049054906101000a900473ffffffffffffffffffffffffffffffffffffffff1673ffffffffffffffffffffffffffffffffffffffff166323b872dd3330876040518463ffffffff1660e01b815260040161036893929190611286565b602060405180830381600087803b15801561038257600080fd5b505af1158015610396573d6000803e3d6000fd5b505050506040513d601f19601f820116820180604052508101906103ba91906112d2565b50600160008054906101000a900463ffffffff166103d8919061132e565b6000806101000a81548163ffffffff021916908363ffffffff16021790555060008054906101000a900463ffffffff16600160008060009054906101000a900463ffffffff1663ffffffff1663ffffffff16815260200190815260200160002060000160006101000a81548163ffffffff021916908363ffffffff16021790555033600160008060009054906101000a900463ffffffff1663ffffffff1663ffffffff16815260200190815260200160002060000160046101000a81548173ffffffffffffffffffffffffffffffffffffffff021916908373ffffffffffffffffffffffffffffffffffffffff160217905550606461012c856104db9190611368565b6104e591906113cb565b600160008060009054906101000a900463ffffffff1663ffffffff1663ffffffff16815260200190815260200160002060040160006101000a81548163ffffffff021916908363ffffffff1602179055506000600160008060009054906101000a900463ffffffff1663ffffffff1663ffffffff16815260200190815260200160002060040160046101000a81548163ffffffff021916908363ffffffff16021790555042600160008060009054906101000a900463ffffffff1663ffffffff1663ffffffff1681526020019081526020016000206001018190555081600160008060009054906101000a900463ffffffff1663ffffffff1663ffffffff1681526020019081526020016000206002018190555082600160008060009054906101000a900463ffffffff1663ffffffff1663ffffffff1681526020019081526020016000206003019080519060200190610640929190610bfe565b507f944f5ef0a446d54c41ea39dac07de1fd2150ec3346cbff6c627d1ffba048676c60008054906101000a900463ffffffff166040516106809190610d2d565b60405180910390a160008054906101000a900463ffffffff1690509392505050565b60016020528060005260406000206000915090508060000160009054906101000a900463ffffffff16908060000160049054906101000a900473ffffffffffffffffffffffffffffffffffffffff169080600101549080600201549080600301805461070d9061142b565b80601f01602080910402602001604051908101604052809291908181526020018280546107399061142b565b80156107865780601f1061075b57610100808354040283529160200191610786565b820191906000526020600020905b81548152906001019060200180831161076957829003601f168201915b5050505050908060040160009054906101000a900463ffffffff16908060040160049054906101000a900463ffffffff16905087565b6000600160008363ffffffff1663ffffffff168152602001908152602001600020600101549050919050565b606463ffffffff168163ffffffff161015610838576040517f08c379a000000000000000000000000000000000000000000000000000000000815260040161082f906114a9565b60405180910390fd5b60008054906101000a900463ffffffff1663ffffffff168363ffffffff1611806108b0575042600160008563ffffffff1663ffffffff16815260200190815260200160002060020154600160008663ffffffff1663ffffffff168152602001908152602001600020600101546108ae91906114c9565b105b156108f0576040517f08c379a00000000000000000000000000000000000000000000000000000000081526004016108e790611591565b60405180910390fd5b600060049054906101000a900473ffffffffffffffffffffffffffffffffffffffff1673ffffffffffffffffffffffffffffffffffffffff166323b872dd3330846040518463ffffffff1660e01b815260040161094f93929190611286565b602060405180830381600087803b15801561096957600080fd5b505af115801561097d573d6000803e3d6000fd5b505050506040513d601f19601f820116820180604052508101906109a191906112d2565b508115610a18576064816109b591906113cb565b600160008563ffffffff1663ffffffff16815260200190815260200160002060040160008282829054906101000a900463ffffffff166109f5919061132e565b92506101000a81548163ffffffff021916908363ffffffff160217905550610a84565b606481610a2591906113cb565b600160008563ffffffff1663ffffffff16815260200190815260200160002060040160048282829054906101000a900463ffffffff16610a65919061132e565b92506101000a81548163ffffffff021916908363ffffffff1602179055505b505050565b6000600160008363ffffffff1663ffffffff168152602001908152602001600020600201549050919050565b600060049054906101000a900473ffffffffffffffffffffffffffffffffffffffff1681565b6000600160008363ffffffff1663ffffffff16815260200190815260200160002060040160009054906101000a900463ffffffff169050919050565b60008054906101000a900463ffffffff1681565b60008060009054906101000a900463ffffffff1663ffffffff16905090565b6060600160008363ffffffff1663ffffffff1681526020019081526020016000206003018054610b799061142b565b80601f0160208091040260200160405190810160405280929190818152602001828054610ba59061142b565b8015610bf25780601f10610bc757610100808354040283529160200191610bf2565b820191906000526020600020905b815481529060010190602001808311610bd557829003601f168201915b50505050509050919050565b828054610c0a9061142b565b90600052602060002090601f016020900481019282610c2c5760008555610c73565b82601f10610c4557805160ff1916838001178555610c73565b82800160010185558215610c73579182015b82811115610c72578251825591602001919060010190610c57565b5b509050610c809190610c84565b5090565b5b80821115610c9d576000816000905550600101610c85565b5090565b6000604051905090565b600080fd5b600080fd5b600063ffffffff82169050919050565b610cce81610cb5565b8114610cd957600080fd5b50565b600081359050610ceb81610cc5565b92915050565b600060208284031215610d0757610d06610cab565b5b6000610d1584828501610cdc565b91505092915050565b610d2781610cb5565b82525050565b6000602082019050610d426000830184610d1e565b92915050565b600080fd5b600080fd5b6000601f19601f8301169050919050565b7f4e487b7100000000000000000000000000000000000000000000000000000000600052604160045260246000fd5b610d9b82610d52565b810181811067ffffffffffffffff82111715610dba57610db9610d63565b5b80604052505050565b6000610dcd610ca1565b9050610dd98282610d92565b919050565b600067ffffffffffffffff821115610df957610df8610d63565b5b610e0282610d52565b9050602081019050919050565b82818337600083830152505050565b6000610e31610e2c84610dde565b610dc3565b905082815260208101848484011115610e4d57610e4c610d4d565b5b610e58848285610e0f565b509392505050565b600082601f830112610e7557610e74610d48565b5b8135610e85848260208601610e1e565b91505092915050565b6000819050919050565b610ea181610e8e565b8114610eac57600080fd5b50565b600081359050610ebe81610e98565b92915050565b600080600060608486031215610edd57610edc610cab565b5b6000610eeb86828701610cdc565b935050602084013567ffffffffffffffff811115610f0c57610f0b610cb0565b5b610f1886828701610e60565b9250506040610f2986828701610eaf565b9150509250925092565b600073ffffffffffffffffffffffffffffffffffffffff82169050919050565b6000610f5e82610f33565b9050919050565b610f6e81610f53565b82525050565b610f7d81610e8e565b82525050565b600081519050919050565b600082825260208201905092915050565b60005b83811015610fbd578082015181840152602081019050610fa2565b83811115610fcc576000848401525b50505050565b6000610fdd82610f83565b610fe78185610f8e565b9350610ff7818560208601610f9f565b61100081610d52565b840191505092915050565b600060e082019050611020600083018a610d1e565b61102d6020830189610f65565b61103a6040830188610f74565b6110476060830187610f74565b81810360808301526110598186610fd2565b905061106860a0830185610d1e565b61107560c0830184610d1e565b98975050505050505050565b60006020820190506110966000830184610f74565b92915050565b60008115159050919050565b6110b18161109c565b81146110bc57600080fd5b50565b6000813590506110ce816110a8565b92915050565b6000806000606084860312156110ed576110ec610cab565b5b60006110fb86828701610cdc565b935050602061110c868287016110bf565b925050604061111d86828701610cdc565b9150509250925092565b6000819050919050565b600061114c61114761114284610f33565b611127565b610f33565b9050919050565b600061115e82611131565b9050919050565b600061117082611153565b9050919050565b61118081611165565b82525050565b600060208201905061119b6000830184611177565b92915050565b600060208201905081810360008301526111bb8184610fd2565b905092915050565b7f696e7375666669656e7420746f6b656e20746f206d616b6520612070726f706f60008201527f73616c0000000000000000000000000000000000000000000000000000000000602082015250565b600061121f602383610f8e565b915061122a826111c3565b604082019050919050565b6000602082019050818103600083015261124e81611212565b9050919050565b600061127061126b61126684610cb5565b611127565b610e8e565b9050919050565b61128081611255565b82525050565b600060608201905061129b6000830186610f65565b6112a86020830185610f65565b6112b56040830184611277565b949350505050565b6000815190506112cc816110a8565b92915050565b6000602082840312156112e8576112e7610cab565b5b60006112f6848285016112bd565b91505092915050565b7f4e487b7100000000000000000000000000000000000000000000000000000000600052601160045260246000fd5b600061133982610cb5565b915061134483610cb5565b92508263ffffffff0382111561135d5761135c6112ff565b5b828201905092915050565b600061137382610cb5565b915061137e83610cb5565b925082821015611391576113906112ff565b5b828203905092915050565b7f4e487b7100000000000000000000000000000000000000000000000000000000600052601260045260246000fd5b60006113d682610cb5565b91506113e183610cb5565b9250826113f1576113f061139c565b5b828204905092915050565b7f4e487b7100000000000000000000000000000000000000000000000000000000600052602260045260246000fd5b6000600282049050600182168061144357607f821691505b60208210811415611457576114566113fc565b5b50919050565b7f696e7375666669656e7420746f6b656e20746f20766f74650000000000000000600082015250565b6000611493601883610f8e565b915061149e8261145d565b602082019050919050565b600060208201905081810360008301526114c281611486565b9050919050565b60006114d482610e8e565b91506114df83610e8e565b9250827fffffffffffffffffffffffffffffffffffffffffffffffffffffffffffffffff03821115611514576115136112ff565b5b828201905092915050565b7f7468652070726f706f73616c206973206e6f7420666f756e64206f722065787060008201527f6972656400000000000000000000000000000000000000000000000000000000602082015250565b600061157b602483610f8e565b91506115868261151f565b604082019050919050565b600060208201905081810360008301526115aa8161156e565b905091905056fea2646970667358221220f608ae64fea7e6d37ade5c65a54e92e26bbd0f7649cc313d26b8476f91caca2d64736f6c6343000809003360806040523480156200001157600080fd5b5060405162001990380380620019908339818101604052810190620000379190620002c2565b818181600390805190602001906200005192919062000075565b5080600490805190602001906200006a92919062000075565b5050505050620003ac565b828054620000839062000376565b90600052602060002090601f016020900481019282620000a75760008555620000f3565b82601f10620000c257805160ff1916838001178555620000f3565b82800160010185558215620000f3579182015b82811115620000f2578251825591602001919060010190620000d5565b5b50905062000102919062000106565b5090565b5b808211156200012157600081600090555060010162000107565b5090565b6000604051905090565b600080fd5b600080fd5b600080fd5b600080fd5b6000601f19601f8301169050919050565b7f4e487b7100000000000000000000000000000000000000000000000000000000600052604160045260246000fd5b6200018e8262000143565b810181811067ffffffffffffffff82111715620001b057620001af62000154565b5b80604052505050565b6000620001c562000125565b9050620001d3828262000183565b919050565b600067ffffffffffffffff821115620001f657620001f562000154565b5b620002018262000143565b9050602081019050919050565b60005b838110156200022e57808201518184015260208101905062000211565b838111156200023e576000848401525b50505050565b60006200025b6200025584620001d8565b620001b9565b9050828152602081018484840111156200027a57620002796200013e565b5b620002878482856200020e565b509392505050565b600082601f830112620002a757620002a662000139565b5b8151620002b984826020860162000244565b91505092915050565b60008060408385031215620002dc57620002db6200012f565b5b600083015167ffffffffffffffff811115620002fd57620002fc62000134565b5b6200030b858286016200028f565b925050602083015167ffffffffffffffff8111156200032f576200032e62000134565b5b6200033d858286016200028f565b9150509250929050565b7f4e487b7100000000000000000000000000000000000000000000000000000000600052602260045260246000fd5b600060028204905060018216806200038f57607f821691505b60208210811415620003a657620003a562000347565b5b50919050565b6115d480620003bc6000396000f3fe608060405234801561001057600080fd5b50600436106100b45760003560e01c80633950935111610071578063395093511461017d57806370a08231146101ad57806395d89b41146101dd578063a457c2d7146101fb578063a9059cbb1461022b578063dd62ed3e1461025b576100b4565b806306fdde03146100b9578063095ea7b3146100d757806318160ddd1461010757806323b872dd14610125578063313ce567146101555780633884d63514610173575b600080fd5b6100c161028b565b6040516100ce9190610d90565b60405180910390f35b6100f160048036038101906100ec9190610e4b565b61031d565b6040516100fe9190610ea6565b60405180910390f35b61010f610340565b60405161011c9190610ed0565b60405180910390f35b61013f600480360381019061013a9190610eeb565b61034a565b60405161014c9190610ea6565b60405180910390f35b61015d610379565b60405161016a9190610f5a565b60405180910390f35b61017b610382565b005b61019760048036038101906101929190610e4b565b61047b565b6040516101a49190610ea6565b60405180910390f35b6101c760048036038101906101c29190610f75565b6104b2565b6040516101d49190610ed0565b60405180910390f35b6101e56104fa565b6040516101f29190610d90565b60405180910390f35b61021560048036038101906102109190610e4b565b61058c565b6040516102229190610ea6565b60405180910390f35b61024560048036038101906102409190610e4b565b610603565b6040516102529190610ea6565b60405180910390f35b61027560048036038101906102709190610fa2565b610626565b6040516102829190610ed0565b60405180910390f35b60606003805461029a90611011565b80601f01602080910402602001604051908101604052809291908181526020018280546102c690611011565b80156103135780601f106102e857610100808354040283529160200191610313565b820191906000526020600020905b8154815290600101906020018083116102f657829003601f168201915b5050505050905090565b6000806103286106ad565b90506103358185856106b5565b600191505092915050565b6000600254905090565b6000806103556106ad565b9050610362858285610880565b61036d85858561090c565b60019150509392505050565b60006012905090565b60001515600560003373ffffffffffffffffffffffffffffffffffffffff1673ffffffffffffffffffffffffffffffffffffffff16815260200190815260200160002060009054906101000a900460ff16151514610415576040517f08c379a000000000000000000000000000000000000000000000000000000000815260040161040c906110b5565b60405180910390fd5b61042133612710610b8d565b6001600560003373ffffffffffffffffffffffffffffffffffffffff1673ffffffffffffffffffffffffffffffffffffffff16815260200190815260200160002060006101000a81548160ff021916908315150217905550565b6000806104866106ad565b90506104a78185856104988589610626565b6104a29190611104565b6106b5565b600191505092915050565b60008060008373ffffffffffffffffffffffffffffffffffffffff1673ffffffffffffffffffffffffffffffffffffffff168152602001908152602001600020549050919050565b60606004805461050990611011565b80601f016020809104026020016040519081016040528092919081815260200182805461053590611011565b80156105825780601f1061055757610100808354040283529160200191610582565b820191906000526020600020905b81548152906001019060200180831161056557829003601f168201915b5050505050905090565b6000806105976106ad565b905060006105a58286610626565b9050838110156105ea576040517f08c379a00000000000000000000000000000000000000000000000000000000081526004016105e1906111cc565b60405180910390fd5b6105f782868684036106b5565b60019250505092915050565b60008061060e6106ad565b905061061b81858561090c565b600191505092915050565b6000600160008473ffffffffffffffffffffffffffffffffffffffff1673ffffffffffffffffffffffffffffffffffffffff16815260200190815260200160002060008373ffffffffffffffffffffffffffffffffffffffff1673ffffffffffffffffffffffffffffffffffffffff16815260200190815260200160002054905092915050565b600033905090565b600073ffffffffffffffffffffffffffffffffffffffff168373ffffffffffffffffffffffffffffffffffffffff161415610725576040517f08c379a000000000000000000000000000000000000000000000000000000000815260040161071c9061125e565b60405180910390fd5b600073ffffffffffffffffffffffffffffffffffffffff168273ffffffffffffffffffffffffffffffffffffffff161415610795576040517f08c379a000000000000000000000000000000000000000000000000000000000815260040161078c906112f0565b60405180910390fd5b80600160008573ffffffffffffffffffffffffffffffffffffffff1673ffffffffffffffffffffffffffffffffffffffff16815260200190815260200160002060008473ffffffffffffffffffffffffffffffffffffffff1673ffffffffffffffffffffffffffffffffffffffff168152602001908152602001600020819055508173ffffffffffffffffffffffffffffffffffffffff168373ffffffffffffffffffffffffffffffffffffffff167f8c5be1e5ebec7d5bd14f71427d1e84f3dd0314c0f7b2291e5b200ac8c7c3b925836040516108739190610ed0565b60405180910390a3505050565b600061088c8484610626565b90507fffffffffffffffffffffffffffffffffffffffffffffffffffffffffffffffff811461090657818110156108f8576040517f08c379a00000000000000000000000000000000000000000000000000000000081526004016108ef9061135c565b60405180910390fd5b61090584848484036106b5565b5b50505050565b600073ffffffffffffffffffffffffffffffffffffffff168373ffffffffffffffffffffffffffffffffffffffff16141561097c576040517f08c379a0000000000000000000000000000000000000000000000000000000008152600401610973906113ee565b60405180910390fd5b600073ffffffffffffffffffffffffffffffffffffffff168273ffffffffffffffffffffffffffffffffffffffff1614156109ec576040517f08c379a00000000000000000000000000000000000000000000000000000000081526004016109e390611480565b60405180910390fd5b6109f7838383610ced565b60008060008573ffffffffffffffffffffffffffffffffffffffff1673ffffffffffffffffffffffffffffffffffffffff16815260200190815260200160002054905081811015610a7d576040517f08c379a0000000000000000000000000000000000000000000000000000000008152600401610a7490611512565b60405180910390fd5b8181036000808673ffffffffffffffffffffffffffffffffffffffff1673ffffffffffffffffffffffffffffffffffffffff16815260200190815260200160002081905550816000808573ffffffffffffffffffffffffffffffffffffffff1673ffffffffffffffffffffffffffffffffffffffff1681526020019081526020016000206000828254610b109190611104565b925050819055508273ffffffffffffffffffffffffffffffffffffffff168473ffffffffffffffffffffffffffffffffffffffff167fddf252ad1be2c89b69c2b068fc378daa952ba7f163c4a11628f55a4df523b3ef84604051610b749190610ed0565b60405180910390a3610b87848484610cf2565b50505050565b600073ffffffffffffffffffffffffffffffffffffffff168273ffffffffffffffffffffffffffffffffffffffff161415610bfd576040517f08c379a0000000000000000000000000000000000000000000000000000000008152600401610bf49061157e565b60405180910390fd5b610c0960008383610ced565b8060026000828254610c1b9190611104565b92505081905550806000808473ffffffffffffffffffffffffffffffffffffffff1673ffffffffffffffffffffffffffffffffffffffff1681526020019081526020016000206000828254610c709190611104565b925050819055508173ffffffffffffffffffffffffffffffffffffffff16600073ffffffffffffffffffffffffffffffffffffffff167fddf252ad1be2c89b69c2b068fc378daa952ba7f163c4a11628f55a4df523b3ef83604051610cd59190610ed0565b60405180910390a3610ce960008383610cf2565b5050565b505050565b505050565b600081519050919050565b600082825260208201905092915050565b60005b83811015610d31578082015181840152602081019050610d16565b83811115610d40576000848401525b50505050565b6000601f19601f8301169050919050565b6000610d6282610cf7565b610d6c8185610d02565b9350610d7c818560208601610d13565b610d8581610d46565b840191505092915050565b60006020820190508181036000830152610daa8184610d57565b905092915050565b600080fd5b600073ffffffffffffffffffffffffffffffffffffffff82169050919050565b6000610de282610db7565b9050919050565b610df281610dd7565b8114610dfd57600080fd5b50565b600081359050610e0f81610de9565b92915050565b6000819050919050565b610e2881610e15565b8114610e3357600080fd5b50565b600081359050610e4581610e1f565b92915050565b60008060408385031215610e6257610e61610db2565b5b6000610e7085828601610e00565b9250506020610e8185828601610e36565b9150509250929050565b60008115159050919050565b610ea081610e8b565b82525050565b6000602082019050610ebb6000830184610e97565b92915050565b610eca81610e15565b82525050565b6000602082019050610ee56000830184610ec1565b92915050565b600080600060608486031215610f0457610f03610db2565b5b6000610f1286828701610e00565b9350506020610f2386828701610e00565b9250506040610f3486828701610e36565b9150509250925092565b600060ff82169050919050565b610f5481610f3e565b82525050565b6000602082019050610f6f6000830184610f4b565b92915050565b600060208284031215610f8b57610f8a610db2565b5b6000610f9984828501610e00565b91505092915050565b60008060408385031215610fb957610fb8610db2565b5b6000610fc785828601610e00565b9250506020610fd885828601610e00565b9150509250929050565b7f4e487b7100000000000000000000000000000000000000000000000000000000600052602260045260246000fd5b6000600282049050600182168061102957607f821691505b6020821081141561103d5761103c610fe2565b5b50919050565b7f5468697320757365722068617320636c61696d65642061697264726f7020616c60008201527f7265616479000000000000000000000000000000000000000000000000000000602082015250565b600061109f602583610d02565b91506110aa82611043565b604082019050919050565b600060208201905081810360008301526110ce81611092565b9050919050565b7f4e487b7100000000000000000000000000000000000000000000000000000000600052601160045260246000fd5b600061110f82610e15565b915061111a83610e15565b9250827fffffffffffffffffffffffffffffffffffffffffffffffffffffffffffffffff0382111561114f5761114e6110d5565b5b828201905092915050565b7f45524332303a2064656372656173656420616c6c6f77616e63652062656c6f7760008201527f207a65726f000000000000000000000000000000000000000000000000000000602082015250565b60006111b6602583610d02565b91506111c18261115a565b604082019050919050565b600060208201905081810360008301526111e5816111a9565b9050919050565b7f45524332303a20617070726f76652066726f6d20746865207a65726f2061646460008201527f7265737300000000000000000000000000000000000000000000000000000000602082015250565b6000611248602483610d02565b9150611253826111ec565b604082019050919050565b600060208201905081810360008301526112778161123b565b9050919050565b7f45524332303a20617070726f766520746f20746865207a65726f20616464726560008201527f7373000000000000000000000000000000000000000000000000000000000000602082015250565b60006112da602283610d02565b91506112e58261127e565b604082019050919050565b60006020820190508181036000830152611309816112cd565b9050919050565b7f45524332303a20696e73756666696369656e7420616c6c6f77616e6365000000600082015250565b6000611346601d83610d02565b915061135182611310565b602082019050919050565b6000602082019050818103600083015261137581611339565b9050919050565b7f45524332303a207472616e736665722066726f6d20746865207a65726f20616460008201527f6472657373000000000000000000000000000000000000000000000000000000602082015250565b60006113d8602583610d02565b91506113e38261137c565b604082019050919050565b60006020820190508181036000830152611407816113cb565b9050919050565b7f45524332303a207472616e7366657220746f20746865207a65726f206164647260008201527f6573730000000000000000000000000000000000000000000000000000000000602082015250565b600061146a602383610d02565b91506114758261140e565b604082019050919050565b600060208201905081810360008301526114998161145d565b9050919050565b7f45524332303a207472616e7366657220616d6f756e742065786365656473206260008201527f616c616e63650000000000000000000000000000000000000000000000000000602082015250565b60006114fc602683610d02565b9150611507826114a0565b604082019050919050565b6000602082019050818103600083015261152b816114ef565b9050919050565b7f45524332303a206d696e7420746f20746865207a65726f206164647265737300600082015250565b6000611568601f83610d02565b915061157382611532565b602082019050919050565b600060208201905081810360008301526115978161155b565b905091905056fea2646970667358221220f09044eee2a922e27095d79e39e131b0f28cd7bd09194d409cb51eb364496b8d64736f6c63430008090033",
  "linkReferences": {},
  "deployedLinkReferences": {}
}