{
  "_format": "hh-sol-artifact-1",
  "contractName": "StudentSocietyDAO",
  "sourceName": "contracts/StudentSocietyDAO.sol",
  "abi": [
    {
      "inputs": [],
      "stateMutability": "nonpayable",
      "type": "constructor"
    },
    {
      "anonymous": false,
      "inputs": [
        {
          "indexed": false,
          "internalType": "uint32",
          "name": "proposalIndex",
          "type": "uint32"
        }
      ],
      "name": "ProposalInitiated",
      "type": "event"
    },
    {
      "inputs": [
        {
          "internalType": "uint32",
          "name": "index",
          "type": "uint32"
        }
      ],
      "name": "conclude",
      "outputs": [],
      "stateMutability": "nonpayable",
      "type": "function"
    },
    {
      "inputs": [],
      "name": "getCostPerVote",
      "outputs": [
        {
          "internalType": "uint32",
          "name": "",
          "type": "uint32"
        }
      ],
      "stateMutability": "pure",
      "type": "function"
    },
    {
      "inputs": [
        {
          "internalType": "uint32",
          "name": "index",
          "type": "uint32"
        }
      ],
      "name": "getDuration",
      "outputs": [
        {
          "internalType": "uint256",
          "name": "",
          "type": "uint256"
        }
      ],
      "stateMutability": "view",
      "type": "function"
    },
    {
      "inputs": [],
      "name": "getManager",
      "outputs": [
        {
          "internalType": "address",
          "name": "",
          "type": "address"
        }
      ],
      "stateMutability": "view",
      "type": "function"
    },
    {
      "inputs": [
        {
          "internalType": "uint32",
          "name": "index",
          "type": "uint32"
        }
      ],
      "name": "getName",
      "outputs": [
        {
          "internalType": "string",
          "name": "",
          "type": "string"
        }
      ],
      "stateMutability": "view",
      "type": "function"
    },
    {
      "inputs": [
        {
          "internalType": "uint32",
          "name": "index",
          "type": "uint32"
        }
      ],
      "name": "getNo",
      "outputs": [
        {
          "internalType": "uint32",
          "name": "",
          "type": "uint32"
        }
      ],
      "stateMutability": "view",
      "type": "function"
    },
    {
      "inputs": [],
      "name": "getProposalInitCost",
      "outputs": [
        {
          "internalType": "uint32",
          "name": "",
          "type": "uint32"
        }
      ],
      "stateMutability": "pure",
      "type": "function"
    },
    {
      "inputs": [],
      "name": "getProposalNum",
      "outputs": [
        {
          "internalType": "uint256",
          "name": "",
          "type": "uint256"
        }
      ],
      "stateMutability": "view",
      "type": "function"
    },
    {
      "inputs": [
        {
          "internalType": "uint32",
          "name": "index",
          "type": "uint32"
        }
      ],
      "name": "getStartTime",
      "outputs": [
        {
          "internalType": "uint256",
          "name": "",
          "type": "uint256"
        }
      ],
      "stateMutability": "view",
      "type": "function"
    },
    {
      "inputs": [
        {
          "internalType": "uint32",
          "name": "index",
          "type": "uint32"
        }
      ],
      "name": "getYes",
      "outputs": [
        {
          "internalType": "uint32",
          "name": "",
          "type": "uint32"
        }
      ],
      "stateMutability": "view",
      "type": "function"
    },
    {
      "inputs": [
        {
          "internalType": "uint32",
          "name": "index",
          "type": "uint32"
        }
      ],
      "name": "isExpired",
      "outputs": [
        {
          "internalType": "bool",
          "name": "",
          "type": "bool"
        }
      ],
      "stateMutability": "view",
      "type": "function"
    },
    {
      "inputs": [],
      "name": "manager",
      "outputs": [
        {
          "internalType": "address",
          "name": "",
          "type": "address"
        }
      ],
      "stateMutability": "view",
      "type": "function"
    },
    {
      "inputs": [
        {
          "internalType": "uint32",
          "name": "amount",
          "type": "uint32"
        },
        {
          "internalType": "string",
          "name": "name",
          "type": "string"
        },
        {
          "internalType": "uint256",
          "name": "duration",
          "type": "uint256"
        }
      ],
      "name": "newProposal",
      "outputs": [
        {
          "internalType": "uint32",
          "name": "proposalIndex",
          "type": "uint32"
        }
      ],
      "stateMutability": "nonpayable",
      "type": "function"
    },
    {
      "inputs": [],
      "name": "proposalNum",
      "outputs": [
        {
          "internalType": "uint32",
          "name": "",
          "type": "uint32"
        }
      ],
      "stateMutability": "view",
      "type": "function"
    },
    {
      "inputs": [
        {
          "internalType": "uint32",
          "name": "",
          "type": "uint32"
        }
      ],
      "name": "proposals",
      "outputs": [
        {
          "internalType": "uint32",
          "name": "index",
          "type": "uint32"
        },
        {
          "internalType": "address",
          "name": "proposer",
          "type": "address"
        },
        {
          "internalType": "uint256",
          "name": "startTime",
          "type": "uint256"
        },
        {
          "internalType": "uint256",
          "name": "duration",
          "type": "uint256"
        },
        {
          "internalType": "string",
          "name": "name",
          "type": "string"
        },
        {
          "internalType": "uint32",
          "name": "yes",
          "type": "uint32"
        },
        {
          "internalType": "uint32",
          "name": "no",
          "type": "uint32"
        },
        {
          "internalType": "bool",
          "name": "concluded",
          "type": "bool"
        }
      ],
      "stateMutability": "view",
      "type": "function"
    },
    {
      "inputs": [],
      "name": "studentERC20",
      "outputs": [
        {
          "internalType": "contract SocietyCredit",
          "name": "",
          "type": "address"
        }
      ],
      "stateMutability": "view",
      "type": "function"
    },
    {
      "inputs": [
        {
          "internalType": "uint32",
          "name": "index",
          "type": "uint32"
        },
        {
          "internalType": "bool",
          "name": "support",
          "type": "bool"
        },
        {
          "internalType": "uint32",
          "name": "amount",
          "type": "uint32"
        }
      ],
      "name": "vote",
      "outputs": [],
      "stateMutability": "nonpayable",
      "type": "function"
    }
  ],
  "bytecode": "0x60806040523480156200001157600080fd5b506040516200002090620000f1565b6200002b90620001b0565b604051809103906000f08015801562000048573d6000803e3d6000fd5b50600060046101000a81548173ffffffffffffffffffffffffffffffffffffffff021916908373ffffffffffffffffffffffffffffffffffffffff16021790555060008060006101000a81548163ffffffff021916908363ffffffff16021790555033600160006101000a81548173ffffffffffffffffffffffffffffffffffffffff021916908373ffffffffffffffffffffffffffffffffffffffff160217905550620001e7565b611990806200203683390190565b600082825260208201905092915050565b7f73747564656e7445524332300000000000000000000000000000000000000000600082015250565b600062000148600c83620000ff565b9150620001558262000110565b602082019050919050565b7f5354550000000000000000000000000000000000000000000000000000000000600082015250565b600062000198600383620000ff565b9150620001a58262000160565b602082019050919050565b60006040820190508181036000830152620001cb8162000139565b90508181036020830152620001e08162000189565b9050919050565b611e3f80620001f76000396000f3fe608060405234801561001057600080fd5b506004361061010b5760003560e01c806359f00ddf116100a2578063987720b511610071578063987720b5146102e75780639f2f194214610317578063a427653314610335578063d500958414610353578063e5600481146103715761010b565b806359f00ddf1461025f5780635ff7d44e1461028f5780636c3fbb2d146102ad578063763b7c5b146102cb5761010b565b80633cb22381116100de5780633cb22381146101d7578063481c6a75146101f5578063550891da14610213578063587999f21461022f5761010b565b806308653de114610110578063238dd991146101405780632a4910ab14610170578063356f9999146101a7575b600080fd5b61012a6004803603810190610125919061148e565b6103a1565b60405161013791906114ca565b60405180910390f35b61015a60048036038101906101559190611661565b6103dd565b60405161016791906114ca565b60405180910390f35b61018a6004803603810190610185919061148e565b6107c9565b60405161019e9897969594939291906117c3565b60405180910390f35b6101c160048036038101906101bc919061148e565b6108f6565b6040516101ce9190611848565b60405180910390f35b6101df610922565b6040516101ec91906114ca565b60405180910390f35b6101fd61092b565b60405161020a9190611863565b60405180910390f35b61022d600480360381019061022891906118aa565b610951565b005b6102496004803603810190610244919061148e565b610bf2565b60405161025691906118fd565b60405180910390f35b6102796004803603810190610274919061148e565b610c4e565b6040516102869190611848565b60405180910390f35b610297610c7a565b6040516102a491906114ca565b60405180910390f35b6102b5610c84565b6040516102c29190611977565b60405180910390f35b6102e560048036038101906102e0919061148e565b610caa565b005b61030160048036038101906102fc919061148e565b61124e565b60405161030e91906114ca565b60405180910390f35b61031f61128a565b60405161032c91906114ca565b60405180910390f35b61033d61129e565b60405161034a9190611848565b60405180910390f35b61035b6112bd565b6040516103689190611863565b60405180910390f35b61038b6004803603810190610386919061148e565b6112e7565b6040516103989190611992565b60405180910390f35b6000600260008363ffffffff1663ffffffff16815260200190815260200160002060040160049054906101000a900463ffffffff169050919050565b600061012c63ffffffff168463ffffffff161015610430576040517f08c379a000000000000000000000000000000000000000000000000000000000815260040161042790611a26565b60405180910390fd5b600060049054906101000a900473ffffffffffffffffffffffffffffffffffffffff1673ffffffffffffffffffffffffffffffffffffffff166323b872dd3330876040518463ffffffff1660e01b815260040161048f93929190611a77565b602060405180830381600087803b1580156104a957600080fd5b505af11580156104bd573d6000803e3d6000fd5b505050506040513d601f19601f820116820180604052508101906104e19190611ac3565b50600160008054906101000a900463ffffffff166104ff9190611b1f565b6000806101000a81548163ffffffff021916908363ffffffff16021790555060008054906101000a900463ffffffff16600260008060009054906101000a900463ffffffff1663ffffffff1663ffffffff16815260200190815260200160002060000160006101000a81548163ffffffff021916908363ffffffff16021790555033600260008060009054906101000a900463ffffffff1663ffffffff1663ffffffff16815260200190815260200160002060000160046101000a81548173ffffffffffffffffffffffffffffffffffffffff021916908373ffffffffffffffffffffffffffffffffffffffff160217905550606461012c856106029190611b59565b61060c9190611bbc565b600260008060009054906101000a900463ffffffff1663ffffffff1663ffffffff16815260200190815260200160002060040160006101000a81548163ffffffff021916908363ffffffff1602179055506000600260008060009054906101000a900463ffffffff1663ffffffff1663ffffffff16815260200190815260200160002060040160046101000a81548163ffffffff021916908363ffffffff16021790555042600260008060009054906101000a900463ffffffff1663ffffffff1663ffffffff1681526020019081526020016000206001018190555081600260008060009054906101000a900463ffffffff1663ffffffff1663ffffffff1681526020019081526020016000206002018190555082600260008060009054906101000a900463ffffffff1663ffffffff1663ffffffff168152602001908152602001600020600301908051906020019061076792919061139b565b507f944f5ef0a446d54c41ea39dac07de1fd2150ec3346cbff6c627d1ffba048676c60008054906101000a900463ffffffff166040516107a791906114ca565b60405180910390a160008054906101000a900463ffffffff1690509392505050565b60026020528060005260406000206000915090508060000160009054906101000a900463ffffffff16908060000160049054906101000a900473ffffffffffffffffffffffffffffffffffffffff169080600101549080600201549080600301805461083490611c1c565b80601f016020809104026020016040519081016040528092919081815260200182805461086090611c1c565b80156108ad5780601f10610882576101008083540402835291602001916108ad565b820191906000526020600020905b81548152906001019060200180831161089057829003601f168201915b5050505050908060040160009054906101000a900463ffffffff16908060040160049054906101000a900463ffffffff16908060040160089054906101000a900460ff16905088565b6000600260008363ffffffff1663ffffffff168152602001908152602001600020600101549050919050565b60006064905090565b600160009054906101000a900473ffffffffffffffffffffffffffffffffffffffff1681565b606463ffffffff168163ffffffff1610156109a1576040517f08c379a000000000000000000000000000000000000000000000000000000000815260040161099890611c9a565b60405180910390fd5b60008054906101000a900463ffffffff1663ffffffff168363ffffffff161180610a19575042600260008563ffffffff1663ffffffff16815260200190815260200160002060020154600260008663ffffffff1663ffffffff16815260200190815260200160002060010154610a179190611cba565b105b15610a59576040517f08c379a0000000000000000000000000000000000000000000000000000000008152600401610a5090611d82565b60405180910390fd5b600060049054906101000a900473ffffffffffffffffffffffffffffffffffffffff1673ffffffffffffffffffffffffffffffffffffffff166323b872dd3330846040518463ffffffff1660e01b8152600401610ab893929190611a77565b602060405180830381600087803b158015610ad257600080fd5b505af1158015610ae6573d6000803e3d6000fd5b505050506040513d601f19601f82011682018060405250810190610b0a9190611ac3565b508115610b8157606481610b1e9190611bbc565b600260008563ffffffff1663ffffffff16815260200190815260200160002060040160008282829054906101000a900463ffffffff16610b5e9190611b1f565b92506101000a81548163ffffffff021916908363ffffffff160217905550610bed565b606481610b8e9190611bbc565b600260008563ffffffff1663ffffffff16815260200190815260200160002060040160048282829054906101000a900463ffffffff16610bce9190611b1f565b92506101000a81548163ffffffff021916908363ffffffff1602179055505b505050565b6000600260008363ffffffff1663ffffffff16815260200190815260200160002060020154600260008463ffffffff1663ffffffff16815260200190815260200160002060010154610c449190611cba565b4210159050919050565b6000600260008363ffffffff1663ffffffff168152602001908152602001600020600201549050919050565b600061012c905090565b600060049054906101000a900473ffffffffffffffffffffffffffffffffffffffff1681565b600160009054906101000a900473ffffffffffffffffffffffffffffffffffffffff1673ffffffffffffffffffffffffffffffffffffffff163373ffffffffffffffffffffffffffffffffffffffff1614610d0457600080fd5b600260008263ffffffff1663ffffffff16815260200190815260200160002060020154600260008363ffffffff1663ffffffff16815260200190815260200160002060010154610d549190611cba565b4210158015610d905750600260008263ffffffff1663ffffffff16815260200190815260200160002060040160089054906101000a900460ff16155b610d9957600080fd5b6001600260008363ffffffff1663ffffffff16815260200190815260200160002060040160086101000a81548160ff021916908315150217905550600260008263ffffffff1663ffffffff16815260200190815260200160002060040160049054906101000a900463ffffffff1663ffffffff16600260008363ffffffff1663ffffffff16815260200190815260200160002060040160009054906101000a900463ffffffff1663ffffffff16111561111057600060049054906101000a900473ffffffffffffffffffffffffffffffffffffffff1673ffffffffffffffffffffffffffffffffffffffff1663a9059cbb600260008463ffffffff1663ffffffff16815260200190815260200160002060000160049054906101000a900473ffffffffffffffffffffffffffffffffffffffff1660026064600260008763ffffffff1663ffffffff16815260200190815260200160002060040160049054906101000a900463ffffffff16600260008863ffffffff1663ffffffff16815260200190815260200160002060040160009054906101000a900463ffffffff16610f419190611b1f565b610f4b9190611da2565b610f559190611bbc565b6040518363ffffffff1660e01b8152600401610f72929190611de0565b602060405180830381600087803b158015610f8c57600080fd5b505af1158015610fa0573d6000803e3d6000fd5b505050506040513d601f19601f82011682018060405250810190610fc49190611ac3565b50600060049054906101000a900473ffffffffffffffffffffffffffffffffffffffff1673ffffffffffffffffffffffffffffffffffffffff1663a9059cbb61dead61012c60026064600260008863ffffffff1663ffffffff16815260200190815260200160002060040160049054906101000a900463ffffffff16600260008963ffffffff1663ffffffff16815260200190815260200160002060040160009054906101000a900463ffffffff1661107d9190611b1f565b6110879190611da2565b6110919190611bbc565b61109b9190611b1f565b6040518363ffffffff1660e01b81526004016110b8929190611de0565b602060405180830381600087803b1580156110d257600080fd5b505af11580156110e6573d6000803e3d6000fd5b505050506040513d601f19601f8201168201806040525081019061110a9190611ac3565b5061124b565b600060049054906101000a900473ffffffffffffffffffffffffffffffffffffffff1673ffffffffffffffffffffffffffffffffffffffff1663a9059cbb61dead61012c6064600260008763ffffffff1663ffffffff16815260200190815260200160002060040160049054906101000a900463ffffffff16600260008863ffffffff1663ffffffff16815260200190815260200160002060040160009054906101000a900463ffffffff166111c69190611b1f565b6111d09190611da2565b6111da9190611b1f565b6040518363ffffffff1660e01b81526004016111f7929190611de0565b602060405180830381600087803b15801561121157600080fd5b505af1158015611225573d6000803e3d6000fd5b505050506040513d601f19601f820116820180604052508101906112499190611ac3565b505b50565b6000600260008363ffffffff1663ffffffff16815260200190815260200160002060040160009054906101000a900463ffffffff169050919050565b60008054906101000a900463ffffffff1681565b60008060009054906101000a900463ffffffff1663ffffffff16905090565b6000600160009054906101000a900473ffffffffffffffffffffffffffffffffffffffff16905090565b6060600260008363ffffffff1663ffffffff168152602001908152602001600020600301805461131690611c1c565b80601f016020809104026020016040519081016040528092919081815260200182805461134290611c1c565b801561138f5780601f106113645761010080835404028352916020019161138f565b820191906000526020600020905b81548152906001019060200180831161137257829003601f168201915b50505050509050919050565b8280546113a790611c1c565b90600052602060002090601f0160209004810192826113c95760008555611410565b82601f106113e257805160ff1916838001178555611410565b82800160010185558215611410579182015b8281111561140f5782518255916020019190600101906113f4565b5b50905061141d9190611421565b5090565b5b8082111561143a576000816000905550600101611422565b5090565b6000604051905090565b600080fd5b600080fd5b600063ffffffff82169050919050565b61146b81611452565b811461147657600080fd5b50565b60008135905061148881611462565b92915050565b6000602082840312156114a4576114a3611448565b5b60006114b284828501611479565b91505092915050565b6114c481611452565b82525050565b60006020820190506114df60008301846114bb565b92915050565b600080fd5b600080fd5b6000601f19601f8301169050919050565b7f4e487b7100000000000000000000000000000000000000000000000000000000600052604160045260246000fd5b611538826114ef565b810181811067ffffffffffffffff8211171561155757611556611500565b5b80604052505050565b600061156a61143e565b9050611576828261152f565b919050565b600067ffffffffffffffff82111561159657611595611500565b5b61159f826114ef565b9050602081019050919050565b82818337600083830152505050565b60006115ce6115c98461157b565b611560565b9050828152602081018484840111156115ea576115e96114ea565b5b6115f58482856115ac565b509392505050565b600082601f830112611612576116116114e5565b5b81356116228482602086016115bb565b91505092915050565b6000819050919050565b61163e8161162b565b811461164957600080fd5b50565b60008135905061165b81611635565b92915050565b60008060006060848603121561167a57611679611448565b5b600061168886828701611479565b935050602084013567ffffffffffffffff8111156116a9576116a861144d565b5b6116b5868287016115fd565b92505060406116c68682870161164c565b9150509250925092565b600073ffffffffffffffffffffffffffffffffffffffff82169050919050565b60006116fb826116d0565b9050919050565b61170b816116f0565b82525050565b61171a8161162b565b82525050565b600081519050919050565b600082825260208201905092915050565b60005b8381101561175a57808201518184015260208101905061173f565b83811115611769576000848401525b50505050565b600061177a82611720565b611784818561172b565b935061179481856020860161173c565b61179d816114ef565b840191505092915050565b60008115159050919050565b6117bd816117a8565b82525050565b6000610100820190506117d9600083018b6114bb565b6117e6602083018a611702565b6117f36040830189611711565b6118006060830188611711565b8181036080830152611812818761176f565b905061182160a08301866114bb565b61182e60c08301856114bb565b61183b60e08301846117b4565b9998505050505050505050565b600060208201905061185d6000830184611711565b92915050565b60006020820190506118786000830184611702565b92915050565b611887816117a8565b811461189257600080fd5b50565b6000813590506118a48161187e565b92915050565b6000806000606084860312156118c3576118c2611448565b5b60006118d186828701611479565b93505060206118e286828701611895565b92505060406118f386828701611479565b9150509250925092565b600060208201905061191260008301846117b4565b92915050565b6000819050919050565b600061193d611938611933846116d0565b611918565b6116d0565b9050919050565b600061194f82611922565b9050919050565b600061196182611944565b9050919050565b61197181611956565b82525050565b600060208201905061198c6000830184611968565b92915050565b600060208201905081810360008301526119ac818461176f565b905092915050565b7f696e7375666669656e7420746f6b656e20746f206d616b6520612070726f706f60008201527f73616c0000000000000000000000000000000000000000000000000000000000602082015250565b6000611a1060238361172b565b9150611a1b826119b4565b604082019050919050565b60006020820190508181036000830152611a3f81611a03565b9050919050565b6000611a61611a5c611a5784611452565b611918565b61162b565b9050919050565b611a7181611a46565b82525050565b6000606082019050611a8c6000830186611702565b611a996020830185611702565b611aa66040830184611a68565b949350505050565b600081519050611abd8161187e565b92915050565b600060208284031215611ad957611ad8611448565b5b6000611ae784828501611aae565b91505092915050565b7f4e487b7100000000000000000000000000000000000000000000000000000000600052601160045260246000fd5b6000611b2a82611452565b9150611b3583611452565b92508263ffffffff03821115611b4e57611b4d611af0565b5b828201905092915050565b6000611b6482611452565b9150611b6f83611452565b925082821015611b8257611b81611af0565b5b828203905092915050565b7f4e487b7100000000000000000000000000000000000000000000000000000000600052601260045260246000fd5b6000611bc782611452565b9150611bd283611452565b925082611be257611be1611b8d565b5b828204905092915050565b7f4e487b7100000000000000000000000000000000000000000000000000000000600052602260045260246000fd5b60006002820490506001821680611c3457607f821691505b60208210811415611c4857611c47611bed565b5b50919050565b7f696e7375666669656e7420746f6b656e20746f20766f74650000000000000000600082015250565b6000611c8460188361172b565b9150611c8f82611c4e565b602082019050919050565b60006020820190508181036000830152611cb381611c77565b9050919050565b6000611cc58261162b565b9150611cd08361162b565b9250827fffffffffffffffffffffffffffffffffffffffffffffffffffffffffffffffff03821115611d0557611d04611af0565b5b828201905092915050565b7f7468652070726f706f73616c206973206e6f7420666f756e64206f722065787060008201527f6972656400000000000000000000000000000000000000000000000000000000602082015250565b6000611d6c60248361172b565b9150611d7782611d10565b604082019050919050565b60006020820190508181036000830152611d9b81611d5f565b9050919050565b6000611dad82611452565b9150611db883611452565b92508163ffffffff0483118215151615611dd557611dd4611af0565b5b828202905092915050565b6000604082019050611df56000830185611702565b611e026020830184611a68565b939250505056fea26469706673582212201a9022904c7b14f89a3f9ad6f7d9f407856f04cac857605a1cef8bb46bdf012e64736f6c6343000809003360806040523480156200001157600080fd5b5060405162001990380380620019908339818101604052810190620000379190620002c2565b818181600390805190602001906200005192919062000075565b5080600490805190602001906200006a92919062000075565b5050505050620003ac565b828054620000839062000376565b90600052602060002090601f016020900481019282620000a75760008555620000f3565b82601f10620000c257805160ff1916838001178555620000f3565b82800160010185558215620000f3579182015b82811115620000f2578251825591602001919060010190620000d5565b5b50905062000102919062000106565b5090565b5b808211156200012157600081600090555060010162000107565b5090565b6000604051905090565b600080fd5b600080fd5b600080fd5b600080fd5b6000601f19601f8301169050919050565b7f4e487b7100000000000000000000000000000000000000000000000000000000600052604160045260246000fd5b6200018e8262000143565b810181811067ffffffffffffffff82111715620001b057620001af62000154565b5b80604052505050565b6000620001c562000125565b9050620001d3828262000183565b919050565b600067ffffffffffffffff821115620001f657620001f562000154565b5b620002018262000143565b9050602081019050919050565b60005b838110156200022e57808201518184015260208101905062000211565b838111156200023e576000848401525b50505050565b60006200025b6200025584620001d8565b620001b9565b9050828152602081018484840111156200027a57620002796200013e565b5b620002878482856200020e565b509392505050565b600082601f830112620002a757620002a662000139565b5b8151620002b984826020860162000244565b91505092915050565b60008060408385031215620002dc57620002db6200012f565b5b600083015167ffffffffffffffff811115620002fd57620002fc62000134565b5b6200030b858286016200028f565b925050602083015167ffffffffffffffff8111156200032f576200032e62000134565b5b6200033d858286016200028f565b9150509250929050565b7f4e487b7100000000000000000000000000000000000000000000000000000000600052602260045260246000fd5b600060028204905060018216806200038f57607f821691505b60208210811415620003a657620003a562000347565b5b50919050565b6115d480620003bc6000396000f3fe608060405234801561001057600080fd5b50600436106100b45760003560e01c80633950935111610071578063395093511461017d57806370a08231146101ad57806395d89b41146101dd578063a457c2d7146101fb578063a9059cbb1461022b578063dd62ed3e1461025b576100b4565b806306fdde03146100b9578063095ea7b3146100d757806318160ddd1461010757806323b872dd14610125578063313ce567146101555780633884d63514610173575b600080fd5b6100c161028b565b6040516100ce9190610d90565b60405180910390f35b6100f160048036038101906100ec9190610e4b565b61031d565b6040516100fe9190610ea6565b60405180910390f35b61010f610340565b60405161011c9190610ed0565b60405180910390f35b61013f600480360381019061013a9190610eeb565b61034a565b60405161014c9190610ea6565b60405180910390f35b61015d610379565b60405161016a9190610f5a565b60405180910390f35b61017b610382565b005b61019760048036038101906101929190610e4b565b61047b565b6040516101a49190610ea6565b60405180910390f35b6101c760048036038101906101c29190610f75565b6104b2565b6040516101d49190610ed0565b60405180910390f35b6101e56104fa565b6040516101f29190610d90565b60405180910390f35b61021560048036038101906102109190610e4b565b61058c565b6040516102229190610ea6565b60405180910390f35b61024560048036038101906102409190610e4b565b610603565b6040516102529190610ea6565b60405180910390f35b61027560048036038101906102709190610fa2565b610626565b6040516102829190610ed0565b60405180910390f35b60606003805461029a90611011565b80601f01602080910402602001604051908101604052809291908181526020018280546102c690611011565b80156103135780601f106102e857610100808354040283529160200191610313565b820191906000526020600020905b8154815290600101906020018083116102f657829003601f168201915b5050505050905090565b6000806103286106ad565b90506103358185856106b5565b600191505092915050565b6000600254905090565b6000806103556106ad565b9050610362858285610880565b61036d85858561090c565b60019150509392505050565b60006012905090565b60001515600560003373ffffffffffffffffffffffffffffffffffffffff1673ffffffffffffffffffffffffffffffffffffffff16815260200190815260200160002060009054906101000a900460ff16151514610415576040517f08c379a000000000000000000000000000000000000000000000000000000000815260040161040c906110b5565b60405180910390fd5b61042133612710610b8d565b6001600560003373ffffffffffffffffffffffffffffffffffffffff1673ffffffffffffffffffffffffffffffffffffffff16815260200190815260200160002060006101000a81548160ff021916908315150217905550565b6000806104866106ad565b90506104a78185856104988589610626565b6104a29190611104565b6106b5565b600191505092915050565b60008060008373ffffffffffffffffffffffffffffffffffffffff1673ffffffffffffffffffffffffffffffffffffffff168152602001908152602001600020549050919050565b60606004805461050990611011565b80601f016020809104026020016040519081016040528092919081815260200182805461053590611011565b80156105825780601f1061055757610100808354040283529160200191610582565b820191906000526020600020905b81548152906001019060200180831161056557829003601f168201915b5050505050905090565b6000806105976106ad565b905060006105a58286610626565b9050838110156105ea576040517f08c379a00000000000000000000000000000000000000000000000000000000081526004016105e1906111cc565b60405180910390fd5b6105f782868684036106b5565b60019250505092915050565b60008061060e6106ad565b905061061b81858561090c565b600191505092915050565b6000600160008473ffffffffffffffffffffffffffffffffffffffff1673ffffffffffffffffffffffffffffffffffffffff16815260200190815260200160002060008373ffffffffffffffffffffffffffffffffffffffff1673ffffffffffffffffffffffffffffffffffffffff16815260200190815260200160002054905092915050565b600033905090565b600073ffffffffffffffffffffffffffffffffffffffff168373ffffffffffffffffffffffffffffffffffffffff161415610725576040517f08c379a000000000000000000000000000000000000000000000000000000000815260040161071c9061125e565b60405180910390fd5b600073ffffffffffffffffffffffffffffffffffffffff168273ffffffffffffffffffffffffffffffffffffffff161415610795576040517f08c379a000000000000000000000000000000000000000000000000000000000815260040161078c906112f0565b60405180910390fd5b80600160008573ffffffffffffffffffffffffffffffffffffffff1673ffffffffffffffffffffffffffffffffffffffff16815260200190815260200160002060008473ffffffffffffffffffffffffffffffffffffffff1673ffffffffffffffffffffffffffffffffffffffff168152602001908152602001600020819055508173ffffffffffffffffffffffffffffffffffffffff168373ffffffffffffffffffffffffffffffffffffffff167f8c5be1e5ebec7d5bd14f71427d1e84f3dd0314c0f7b2291e5b200ac8c7c3b925836040516108739190610ed0565b60405180910390a3505050565b600061088c8484610626565b90507fffffffffffffffffffffffffffffffffffffffffffffffffffffffffffffffff811461090657818110156108f8576040517f08c379a00000000000000000000000000000000000000000000000000000000081526004016108ef9061135c565b60405180910390fd5b61090584848484036106b5565b5b50505050565b600073ffffffffffffffffffffffffffffffffffffffff168373ffffffffffffffffffffffffffffffffffffffff16141561097c576040517f08c379a0000000000000000000000000000000000000000000000000000000008152600401610973906113ee565b60405180910390fd5b600073ffffffffffffffffffffffffffffffffffffffff168273ffffffffffffffffffffffffffffffffffffffff1614156109ec576040517f08c379a00000000000000000000000000000000000000000000000000000000081526004016109e390611480565b60405180910390fd5b6109f7838383610ced565b60008060008573ffffffffffffffffffffffffffffffffffffffff1673ffffffffffffffffffffffffffffffffffffffff16815260200190815260200160002054905081811015610a7d576040517f08c379a0000000000000000000000000000000000000000000000000000000008152600401610a7490611512565b60405180910390fd5b8181036000808673ffffffffffffffffffffffffffffffffffffffff1673ffffffffffffffffffffffffffffffffffffffff16815260200190815260200160002081905550816000808573ffffffffffffffffffffffffffffffffffffffff1673ffffffffffffffffffffffffffffffffffffffff1681526020019081526020016000206000828254610b109190611104565b925050819055508273ffffffffffffffffffffffffffffffffffffffff168473ffffffffffffffffffffffffffffffffffffffff167fddf252ad1be2c89b69c2b068fc378daa952ba7f163c4a11628f55a4df523b3ef84604051610b749190610ed0565b60405180910390a3610b87848484610cf2565b50505050565b600073ffffffffffffffffffffffffffffffffffffffff168273ffffffffffffffffffffffffffffffffffffffff161415610bfd576040517f08c379a0000000000000000000000000000000000000000000000000000000008152600401610bf49061157e565b60405180910390fd5b610c0960008383610ced565b8060026000828254610c1b9190611104565b92505081905550806000808473ffffffffffffffffffffffffffffffffffffffff1673ffffffffffffffffffffffffffffffffffffffff1681526020019081526020016000206000828254610c709190611104565b925050819055508173ffffffffffffffffffffffffffffffffffffffff16600073ffffffffffffffffffffffffffffffffffffffff167fddf252ad1be2c89b69c2b068fc378daa952ba7f163c4a11628f55a4df523b3ef83604051610cd59190610ed0565b60405180910390a3610ce960008383610cf2565b5050565b505050565b505050565b600081519050919050565b600082825260208201905092915050565b60005b83811015610d31578082015181840152602081019050610d16565b83811115610d40576000848401525b50505050565b6000601f19601f8301169050919050565b6000610d6282610cf7565b610d6c8185610d02565b9350610d7c818560208601610d13565b610d8581610d46565b840191505092915050565b60006020820190508181036000830152610daa8184610d57565b905092915050565b600080fd5b600073ffffffffffffffffffffffffffffffffffffffff82169050919050565b6000610de282610db7565b9050919050565b610df281610dd7565b8114610dfd57600080fd5b50565b600081359050610e0f81610de9565b92915050565b6000819050919050565b610e2881610e15565b8114610e3357600080fd5b50565b600081359050610e4581610e1f565b92915050565b60008060408385031215610e6257610e61610db2565b5b6000610e7085828601610e00565b9250506020610e8185828601610e36565b9150509250929050565b60008115159050919050565b610ea081610e8b565b82525050565b6000602082019050610ebb6000830184610e97565b92915050565b610eca81610e15565b82525050565b6000602082019050610ee56000830184610ec1565b92915050565b600080600060608486031215610f0457610f03610db2565b5b6000610f1286828701610e00565b9350506020610f2386828701610e00565b9250506040610f3486828701610e36565b9150509250925092565b600060ff82169050919050565b610f5481610f3e565b82525050565b6000602082019050610f6f6000830184610f4b565b92915050565b600060208284031215610f8b57610f8a610db2565b5b6000610f9984828501610e00565b91505092915050565b60008060408385031215610fb957610fb8610db2565b5b6000610fc785828601610e00565b9250506020610fd885828601610e00565b9150509250929050565b7f4e487b7100000000000000000000000000000000000000000000000000000000600052602260045260246000fd5b6000600282049050600182168061102957607f821691505b6020821081141561103d5761103c610fe2565b5b50919050565b7f5468697320757365722068617320636c61696d65642061697264726f7020616c60008201527f7265616479000000000000000000000000000000000000000000000000000000602082015250565b600061109f602583610d02565b91506110aa82611043565b604082019050919050565b600060208201905081810360008301526110ce81611092565b9050919050565b7f4e487b7100000000000000000000000000000000000000000000000000000000600052601160045260246000fd5b600061110f82610e15565b915061111a83610e15565b9250827fffffffffffffffffffffffffffffffffffffffffffffffffffffffffffffffff0382111561114f5761114e6110d5565b5b828201905092915050565b7f45524332303a2064656372656173656420616c6c6f77616e63652062656c6f7760008201527f207a65726f000000000000000000000000000000000000000000000000000000602082015250565b60006111b6602583610d02565b91506111c18261115a565b604082019050919050565b600060208201905081810360008301526111e5816111a9565b9050919050565b7f45524332303a20617070726f76652066726f6d20746865207a65726f2061646460008201527f7265737300000000000000000000000000000000000000000000000000000000602082015250565b6000611248602483610d02565b9150611253826111ec565b604082019050919050565b600060208201905081810360008301526112778161123b565b9050919050565b7f45524332303a20617070726f766520746f20746865207a65726f20616464726560008201527f7373000000000000000000000000000000000000000000000000000000000000602082015250565b60006112da602283610d02565b91506112e58261127e565b604082019050919050565b60006020820190508181036000830152611309816112cd565b9050919050565b7f45524332303a20696e73756666696369656e7420616c6c6f77616e6365000000600082015250565b6000611346601d83610d02565b915061135182611310565b602082019050919050565b6000602082019050818103600083015261137581611339565b9050919050565b7f45524332303a207472616e736665722066726f6d20746865207a65726f20616460008201527f6472657373000000000000000000000000000000000000000000000000000000602082015250565b60006113d8602583610d02565b91506113e38261137c565b604082019050919050565b60006020820190508181036000830152611407816113cb565b9050919050565b7f45524332303a207472616e7366657220746f20746865207a65726f206164647260008201527f6573730000000000000000000000000000000000000000000000000000000000602082015250565b600061146a602383610d02565b91506114758261140e565b604082019050919050565b600060208201905081810360008301526114998161145d565b9050919050565b7f45524332303a207472616e7366657220616d6f756e742065786365656473206260008201527f616c616e63650000000000000000000000000000000000000000000000000000602082015250565b60006114fc602683610d02565b9150611507826114a0565b604082019050919050565b6000602082019050818103600083015261152b816114ef565b9050919050565b7f45524332303a206d696e7420746f20746865207a65726f206164647265737300600082015250565b6000611568601f83610d02565b915061157382611532565b602082019050919050565b600060208201905081810360008301526115978161155b565b905091905056fea2646970667358221220f09044eee2a922e27095d79e39e131b0f28cd7bd09194d409cb51eb364496b8d64736f6c63430008090033",
  "linkReferences": {},
  "deployedLinkReferences": {}
}